:03000000021141A9
:0C114100787FE4F6D8FD75816C021188FF
:1008BF000000C0C1C1810140C30103C00280C24119
:1008CF00C60106C00780C7410500C5C1C4810440E9
:1008DF00CC010CC00D80CD410F00CFC1CE810E4099
:1008EF000A00CAC1CB810B40C90109C00880C841A9
:1008FF00D80118C01980D9411B00DBC1DA811A4019
:10090F001E00DEC1DF811F40DD011DC01C80DC41E8
:10091F001400D4C1D5811540D70117C01680D64118
:10092F00D20112C01380D3411100D1C1D081104028
:10093F00F00130C03180F1413300F3C1F281324018
:10094F003600F6C1F7813740F50135C03480F441E8
:10095F003C00FCC1FD813D40FF013FC03E80FE4198
:10096F00FA013AC03B80FB413900F9C1F8813840A8
:10097F002800E8C1E9812940EB012BC02A80EA4118
:10098F00EE012EC02F80EF412D00EDC1EC812C40E8
:10099F00E40124C02580E5412700E7C1E681264018
:1009AF002200E2C1E3812340E10121C02080E04128
:1009BF00A00160C06180A1416300A3C1A281624018
:1009CF006600A6C1A7816740A50165C06480A441E8
:1009DF006C00ACC1AD816D40AF016FC06E80AE4198
:1009EF00AA016AC06B80AB416900A9C1A8816840A8
:1009FF007800B8C1B9817940BB017BC07A80BA4118
:100A0F00BE017EC07F80BF417D00BDC1BC817C40E7
:100A1F00B40174C07580B5417700B7C1B681764017
:100A2F007200B2C1B3817340B10171C07080B04127
:100A3F00500090C191815140930153C05280924117
:100A4F00960156C057809741550095C194815440E7
:100A5F009C015CC05D809D415F009FC19E815E4097
:100A6F005A009AC19B815B40990159C058809841A7
:100A7F00880148C0498089414B008BC18A814A4017
:100A8F004E008EC18F814F408D014DC04C808C41E7
:100A9F00440084C185814540870147C04680864117
:100AAF00820142C043808341410081C18081404027
:100C6C00120003C200C201C208C209C202C203C2FE
:100C7C000AC20BC204C205C20CC20D120F12120F13
:100C8C00D5C294C290D2AFC22875EC00302105C2F7
:100C9C00211206BE12144B30220D1213F8302445CB
:100CAC00C224120076803E30180DC21812125485E0
:100CBC00433B85443C802E30190DC2191212BD8560
:100CCC00453B85463C801E301A0DC21A12132685F0
:100CDC00473B85483C800E301B0BC21B12138F8583
:100CEC00493B854A3C3020A1C22075EC00E550649C
:100CFC0001702D302516853A2DAF42EFF52EE541CA
:100D0C00F542754100AF42EFF52F8009752D007546
:100D1C002E00752F00C204120F12755A00020DC05E
:100D2C00E5506402702C302516853A30AF42EFF551
:100D3C0031E541F542754100AF42EFF5328009755E
:100D4C003000753100753200C205120F12755B0050
:100D5C008062E5506403702C302516853A33AF421F
:100D6C00EFF534E541F542754100AF42EFF53580C2
:100D7C0009753300753400753500C20C120FD5752A
:100D8C005C008030E5506404702A302516853A36B4
:100D9C00AF42EFF537E541F542754100AF42EFF553
:100DAC00388009753600753700753800C20D120F82
:0D0DBC00D5755D001214EEC225020C9522C3
:04001F0075B2832211
:1015170075F1FD75A41075D4CE75D5FF75E101750C
:10152700E240D294D290C297C293C296C292C29519
:03153700C291223C
:10002E00C28FD28EC28DC28CC28BC28AC289C28846
:10003E00758920758E48758D9675C80075CA3F7581
:10004E00CBB075CC3F75CDB0759104759297759305
:08005E0040759497759540224E
:040026007598102297
:0A15780075B9F17596007597002211
:1015680053D9BF75D90075EBEE43D94075EC00220D
:1014C40075080075090075FF80750800750900C36B
:1014D400E509945EE50864809481500A0509E509EC
:0914E4007002050880E975EF02B1
:0114ED0022DC
:10155400C2AFC2AED2ADD2ACC2ABC2AAC2A9C2A8FB
:0415640075E6802286
:1011CD00752200755D00755C00755B00755A0075C4
:1011DD006100756000755F00755E00753B00753CC4
:1011ED0000754100754200C224C222C220C229C22C
:1011FD0025C223753A00755000C22790001BE4F0FC
:10120D00A3F0900036F0A3F0900038F0A3F090001A
:10121D003AF0A3F0F52BF53DF53EF553C218C21982
:10122D00C21AC21BF52CF539C221F52EF52FF52D5D
:10123D00F531F532F530F534F535F533F537F5385B
:07124D00F536C226F552221E
:1000030012001F12156812002E1200261215171265
:0C00130015781214C41211CD12155422DD
:0B0066008F0CE50C6004150C80F822E4
:100F1200E52030E704D2978002C2977F281200664C
:100F2200D296120066C296E52030E604D29780027D
:100F3200C2977F28120066D296120066C296E520FA
:100F420030E504D2978002C2977F28120066D296BB
:100F5200120066C296E52030E404D2978002C2975E
:100F62007F28120066D296120066C296E52030E310
:100F720004D2978002C2977F28120066D29612008E
:100F820066C296E52030E204D2978002C2977F289B
:100F9200120066D296120066C296E52030E104D2B3
:100FA200978002C2977F28120066D296120066C20C
:100FB20096E52030E004D2978002C2977F28120083
:100FC20066D296120066C296120066D2951200662A
:030FD200C29522A3
:100FD500E52130E704D2938002C2937F2812006690
:100FE500D292120066C292E52130E604D2938002C5
:100FF500C2937F28120066D292120066C292E52142
:1010050030E504D2938002C2937F28120066D29203
:10101500120066C292E52130E404D2938002C293A5
:101025007F28120066D292120066C292E52130E353
:1010350004D2938002C2937F28120066D2921200D6
:1010450066C292E52130E204D2938002C2937F28E2
:10105500120066D292120066C292E52130E104D2F6
:10106500938002C2937F28120066D292120066C254
:1010750092E52130E004D2938002C2937F281200CA
:1010850066D292120066C292120066D29112006672
:03109500C29122E3
:03002300020ABF0F
:100ABF00C0E0C0F0C083C082C0D075D000C000C0FD
:100ACF0006C007209803020BAEC298859962E52CE9
:100ADF007008E562B42403752C01E52C120EEC0CA2
:100AEF005B000B0D010B13020B2D030B35040B5881
:100AFF00050B73060B7F0700000B87020C5B752C31
:100B0F0002020C5BE562B4100D75675B7568BF750B
:100B1F002C03C2218062752C00020C5B805A752C4D
:100B2F00048562298052E5627005752C068049E5BF
:100B3F0062D39419500B754B0085624F752C05804D
:100B4F0037752C00020C5B802FAF4B74022FF58290
:100B5F00E43400F583E562F0054BE54BB54F1975AD
:100B6F002C068014752C07020C5B752C00020C5B95
:100B7F00D221752C00020C5BE5686262856768758F
:100B8F006700AF6275F002EFA424BFF582E5F03481
:100B9F0008F583E493FE740193FF6268EE626720A9
:100BAF009903020C5BC299E539120EEC0BD1020BC3
:100BBF00E2030BED040C04050C22060C2A070000BF
:100BCF000C5B756210759910756999756AFE7539A8
:100BDF00038052AF2A8F628F997539048047AF28EF
:100BEF008F628F99E5516008753905754E00803514
:100BFF007539068030AF4E741D2FF582E43400F541
:100C0F0083E0FFF562F599054EE54EB5511775393D
:100C1F00068012856A99753907803185699975390A
:100C2F000880298027E56A626285696A756900AF65
:100C3F006275F002EFA424BFF582E5F03408F58366
:100C4F00E493FE740193FF626AEE6269D007D006E7
:0D0C5F00D000D0D0D082D083D0F0D0E032D1
:1006BE00E529120EEC06D601075C0207A5030874A5
:1006CE00040896DD000008BE752200900002E0FFCF
:1006DE00B4FF02D210900003E0FFB4FF02D21190DB
:1006EE000004E0FFB4FF02D212900005E0FFB4FF59
:1006FE0002D213120440752A0175510CAF517E00BF
:10070E007B007A00792DC003C002C0010B7A0079FC
:10071E001DA801AC027D01D001D002D003120E99AA
:10072E00753902855128759923752E01752F01751E
:10073E002D01753100753200753000753400753538
:10074E00007533007537007538007536002275C890
:10075E0004753D00753E00752E00752F00752D0039
:10076E0075310075320075300075340075350075C1
:10077E003300753700753800753600900002E0FFC3
:10078E00F55AA3E0FFF55BA3E0FFF55CA3E0FFF5F0
:10079E005DD2281214EE22900002E0FFB4FF1C7509
:1007AE005EFF755A00D200302216E550B40111C218
:1007BE0004C2227596007597008005755E00C20012
:1007CE00900003E0FFB4FF1C755FFF755B00D20164
:1007DE00302216E550B40211C205C222759600757C
:1007EE0097008005755F00C201900004E0FFB4FF22
:1007FE001C7560FF755C00D208302216E550B403FC
:10080E0011C20CC2227596007597008005756000A6
:10081E00C208900005E0FFB4FF1C7561FF755D0016
:10082E00D209302216E550B40411C20DC2227596BB
:10083E00007597008005756100C209752A03755110
:10084E000490001DE55EF0A3E55FF0A3E560F0A364
:10085E00E561F075390285512875992375EC001202
:10086E000F12120FD522752A0475510490001DE542
:10087E005EF0A3E55FF0A3E560F0A3E561F07539E6
:10088E000285512875992322755104752ADDE53D9F
:10089E00FF3395E0FE90001DEFF0AF3EEFA3F0A307
:1008AE007401F0A37405F0753902855128759923EA
:0108BE002217
:10144B00302849E55A7045E55B7041E55C703DE538
:10145B005D600122C228752A0275510C7B007A004F
:10146B00792DC003C002C0010B7A00791DA801AC15
:10147B00027D01D001D002D0037E007F0C120E99A9
:0D148B0075390285512875992375C8002216
:03002B0002149824
:10149800C0E0C0D0C2CF053EE53E7002053DE52B59
:1014A8007013752B63E553C3944F40057553008043
:0C14B8000605538002152BD0D0D0E03286
:0300730002153A39
:10153A00C0E0C0D053917F0552E552D394034005D1
:0A154A00755200D224D0D0D0E03258
:03158200010E0057
:1013F80030870E90001CE004F0700690001BE0049B
:10140800F030860E900037E004F07006900036E069
:1014180004F030830E900039E004F0700690003834
:10142800E004F030820E90003BE004F0700690007B
:101438003AE004F0900001E004F07006900000E04B
:0314480004F0228B
:10125400E55AB40107753A01C2028016E55AB40290
:1012640007753A02D202800A752E00752F00752D7B
:101274000022755001D204C205C20CC20D753B0098
:10128400753C00759600759700120F12120FD5D297
:1012940022C220D229C22575410075420090001B4C
:1012A400E4F0A3F0900000F0A3F0C223F554F55548
:0912B400F53FC224D22AC2272210
:1012BD00E55BB40107753A01C2038016E55BB40224
:1012CD0007753A02D203800A753100753200753008
:1012DD000022755002C204D205C20CC20D753B002E
:1012ED00753C00759600759700120F12120FD5D22E
:1012FD0022C220D229C225754100754200900036C8
:10130D00E4F0A3F0900000F0A3F0C223F554F555DE
:09131D00F53FC224D22AC22722A6
:10132600E55CB40107753A01C20A8016E55CB402B1
:1013360007753A02D20A800A75340075350075338E
:101346000022755003C204C205D20CC20D753B00C3
:10135600753C00759600759700120F12120FD5D2C4
:1013660022C220D229C2257541007542009000385C
:10137600E4F0A3F0900000F0A3F0C223F554F55575
:09138600F53FC224D22AC227223D
:10138F00E55DB40107753A01C20B8016E55DB40245
:10139F0007753A02D20B800A75370075380075361B
:1013AF000022755004C204C205C20CD20D753B0059
:1013BF00753C00759600759700120F12120FD5D25B
:1013CF0022C220D229C22575410075420090003AF1
:1013DF00E4F0A3F0900000F0A3F0C223F554F5550C
:0913EF00F53FC224D22AC22722D4
:10007600302A22C22A900000E4F0A3F090001BF080
:10008600A3F0900036F0A3F0900038F0A3F09000B3
:100096003AF0A3F022E55064017069900000E0FE9A
:1000A600A3E0FF7802CEC313CE13D8F9F50B8E0A60
:1000B600D39400E50A9400403A900000E0FEA3E0E5
:1000C600FF950BFFEE950AFE90001BE0FCA3E0FDFA
:1000D600D39FEC9E4005D22702027590001BE0FEDE
:1000E600A3E0FFC3950BEE950A4003020275C227F3
:1000F600020275900000E4F0A3F090001BF0A3F05C
:1001060022020275E55064027069900000E0FEA3C9
:10011600E0FF7802CEC313CE13D8F9F50B8E0AD3BF
:100126009400E50A9400403A900000E0FEA3E0FF48
:10013600950BFFEE950AFE900036E0FCA3E0FDD39A
:100146009FEC9E4005D227020275900036E0FEA382
:10015600E0FFC3950BEE950A4003020275C2270223
:100166000275900000E4F0A3F0900036F0A3F022B0
:10017600020275E55064037069900000E0FEA3E09A
:10018600FF7802CEC313CE13D8F9F50B8E0AD3949B
:1001960000E50A9400403A900000E0FEA3E0FF95D7
:1001A6000BFFEE950AFE900038E0FCA3E0FDD39F1E
:1001B600EC9E4005D227020275900038E0FEA3E0CF
:1001C600FFC3950BEE950A4003020275C227020291
:1001D60075900000E4F0A3F0900038F0A3F022023E
:1001E6000275E55064047063900000E0FEA3E0FF32
:1001F6007802CEC313CE13D8F9F50B8E0AD394002A
:10020600E50A94004035900000E0FEA3E0FF950B60
:10021600FFEE950AFE90003AE0FCA3E0FDD39FECCA
:100226009E4004D227804890003AE0FEA3E0FFC338
:10023600950BEE950A5038C2278034900000E4F002
:10024600A3F090003AF0A3F0228024900000E4F09E
:10025600A3F090001BF0A3F0900036F0A3F09000FE
:1002660038F0A3F090003AF0A3F0C222D2202290F8
:100276000000E4F0A3F090001BF0A3F0900036F02D
:10028600A3F0900038F0A3F090003AF0A3F03023EA
:100296000302034330297C30274AC3E53C9480E5BA
:1002A6003B9400500D754100754200D225C222D202
:1002B6002022AE3BE53C7806CEC313CE13D8F9F523
:1002C600558E54753F01D223C22974C0253CF53C96
:1002D60074FF353BF53BF54D754C00AF3CEFF5969D
:1002E600854D9722C3E53C94C0E53B94FF501974B5
:1002F60040253CF53CE4353BF53BF54D754C00AFF0
:100306003CEFF596854D97227541037542FFD22540
:10031600C22922D3E53C943FE53B9400401A74C0C1
:10032600253CF53C74FF353BF53BF54D754C00AF70
:100336003CEFF596854D9722C222D2202230290322
:100346000203D7202759AE3BE53C7806CEC313CE31
:1003560013D8F9FF24FFFFEE34FFFEEF2555F555C0
:10036600EE3554F554053FE53FC394204016AE5490
:10037600E5557805CEC313CE13D8F9F5428E41D292
:1003860025C22322D2297440253CF53CE4353BF5B1
:100396003BF54D754C00AF3CEFF596854D9722C366
:1003A600E53C9480E53B9400500D75410075420094
:1003B600D225C222D2202274C0253CF53C74FF35DA
:1003C6003BF53BF54D754C00AF3CEFF596854D97EB
:1003D60022302735AE3BE53C7806CEC313CE13D884
:1003E600F9FF2555F555EE3554F554053FC22974E8
:1003F600C0253CF53C74FF353BF53BF54D754C008F
:10040600AF3CEFF596854D9722C3E53C94C0E53B9E
:1004160094FF50197440253CF53CE4353BF53BF51B
:100426004D754C00AF3CEFF596854D97227541030F
:090436007542FFD225C229C22340
:01043F00229A
:10044000752E00752F00752D007531007532007501
:100450003000753400753500753300753700753818
:100460000075360075EC002010030204F0755A0187
:100470001212541213F8302408C22412007675ECBC
:10048000003020EF800280EB30256585416B85428E
:100490006C755A021212541213F8302408C2241236
:1004A000007675EC003020EF800280EB302541852E
:1004B00041268542277F011210988F40E540B40104
:1004C00016752D01AF6CEFF52EE56BF56C756B00B5
:1004D000AF6CEFF52F8019E540B40214752D02AF13
:1004E00027EFF52EE526F527752600AF27EFF52F28
:1004F00075EC0020110302057C755B011212BD1220
:1005000013F8302408C22412007675EC003020EF76
:10051000800280EB30256585416B85426C755B02FE
:100520001212BD1213F8302408C22412007675ECA2
:10053000003020EF800280EB302541854126854246
:10054000277F021210988F40E540B40116753001E4
:10055000AF6CEFF531E56BF56C756B00AF6CEFF5DB
:10056000328019E540B40214753002AF27EFF5313F
:10057000E526F527752600AF27EFF53275EC00204C
:100580001203020608755C011213261213F83024B8
:1005900008C22412007675EC003020EF800280EB58
:1005A00030256585416B85426C755C0212132612FD
:1005B00013F8302408C22412007675EC003020EFC6
:1005C000800280EB3025418541268542277F03123A
:1005D00010988F40E540B40116753301AF6CEFF50C
:1005E00034E56BF56C756B00AF6CEFF5358019E594
:1005F00040B40214753302AF27EFF534E526F52732
:10060000752600AF27EFF53575EC002013030206C1
:1006100094755D0112138F1213F8302408C224124E
:10062000007675EC003020EF800280EB3025658588
:10063000416B85426C755D0212138F1213F83024E2
:1006400008C22412007675EC003020EF800280EBA7
:100650003025418541268542277F041210988F401E
:10066000E540B40116753601AF6CEFF537E56BF573
:100670006C756B00AF6CEFF5388019E540B402146F
:10068000753602AF27EFF537E526F527752600AF5B
:1006900027EFF538C204C205C20CC20D120F1212A8
:1006A0000FD5755D00755C00755B00755A0075535C
:0E06B00000C225C220C21BC21AC219C21822E3
:101098008F0DD3E56C9400E56B9402400EE56C244B
:1010A80000F557E56B34FEF556800CC3E4956CF5F6
:1010B800577402956BF556D3E5279400E5269402FC
:1010C800400EE5272400F559E52634FEF558800C36
:1010D800C3E49527F55974029526F558D3E5579535
:1010E80059E55695584029AE58E5597806C333CE88
:1010F80033CED8F9FF7B007A007941AD0D75F00247
:10110800EDA4F58285F083EE8FF0120EBF7F0222E8
:10111800AE56E5577806C333CE33CED8F9FF7B00F9
:101128007A007941AD0D75F002EDA4F58285F08362
:09113800EE8FF0120EBF7F0122C0
:1014EE00750E00E50EC39404501EAF0E745A2FF8FD
:1014FE00E6FF6010AF0EA8077401088002C333D850
:09150E00FCF52322050E80DB220E
:011DFF00FFE4
:10114D00020C6CE493A3F8E493A34003F68001F240
:10115D0008DFF48029E493A3F85407240CC8C333A3
:10116D00C4540F4420C8834004F456800146F6DF72
:10117D00E4800B0102040810204080901582E47E6B
:10118D00019360BCA3FF543F30E509541FFEE49367
:10119D00A360010ECF54C025E060A840B8E493A32E
:1011AD00FAE493A3F8E493A3C8C582C8CAC583CA59
:1011BD00F0A3C8C582C8CAC583CADFE9DEE780BE11
:011585000065
:100DC900E709F608DFFA8046E709F208DFFA803E0C
:100DD90088828C83E709F0A3DFFA8032E309F608F9
:100DE900DFFA8078E309F208DFFA807088828C8361
:100DF900E309F0A3DFFA806489828A83E0A3F60815
:100E0900DFFA805889828A83E0A3F208DFFA804CEE
:100E190080D280FA80C680D4806980F280338010C5
:100E290080A680EA809A80A880DA80E280CA80332E
:100E390089828A83ECFAE493A3C8C582C8CCC583A6
:100E4900CCF0A3C8C582C8CCC583CCDFE9DEE78076
:100E59000D89828A83E493A3F608DFF9ECFAA9F0F5
:100E6900EDFB2289828A83ECFAE0A3C8C582C8CC4B
:100E7900C583CCF0A3C8C582C8CCC583CCDFEADE64
:100E8900E880DB89828A83E493A3F208DFF980CCC6
:100E990088F0EF60010E4E60C388F0ED2402B404BF
:100EA9000050B9F582EB2402B4040050AF23234566
:060EB9008223900E197364
:100EBF00F8BB0111E58229F582E5833AF583E8F065
:100ECF00E5F0A3F0225009E92582C8F608A6F02222
:0D0EDF00BBFE09E92582C8F2E5F008F22209
:100EEC00D083D082F8E4937012740193700DA3A395
:100EFC0093F8740193F5828883E4737402936860A9
:060F0C00EFA3A3A380DFA8
:00000001FF
