:03000000021226C3
:0C122600787FE4F6D8FD75814C02126D53
:1000760073746172742074657374206174206C6982
:100086006E65312000737461727420746573742018
:100096006174206C696E653220007374617274201D
:1000A60074657374206174206C696E653320007307
:1000B600746172742074657374206174206C696E47
:1000C600653400696E20656E64207465737400651E
:1000D6006E64000000C0C1C1810140C30103C002BB
:1000E60080C241C60106C00780C7410500C5C1C41C
:1000F600810440CC010CC00D80CD410F00CFC1CE94
:10010600810E400A00CAC1CB810B40C90109C00853
:1001160080C841D80118C01980D9411B00DBC1DA5B
:10012600811A401E00DEC1DF811F40DD011DC01C9B
:1001360080DC411400D4C1D5811540D70117C01603
:1001460080D641D20112C01380D3411100D1C1D053
:10015600811040F00130C03180F1413300F3C1F22B
:100166008132403600F6C1F7813740F50135C0349B
:1001760080F4413C00FCC1FD813D40FF013FC03E93
:1001860080FE41FA013AC03B80FB413900F9C1F8D3
:100196008138402800E8C1E9812940EB012BC02ABB
:1001A60080EA41EE012EC02F80EF412D00EDC1EC1B
:1001B600812C40E40124C02580E5412700E7C1E603
:1001C6008126402200E2C1E3812340E10121C020D3
:1001D60080E041A00160C06180A1416300A3C1A28B
:1001E6008162406600A6C1A7816740A50165C0641B
:1001F60080A4416C00ACC1AD816D40AF016FC06E93
:1002060080AE41AA016AC06B80AB416900A9C1A852
:100216008168407800B8C1B9817940BB017BC07A5A
:1002260080BA41BE017EC07F80BF417D00BDC1BC9A
:10023600817C40B40174C07580B5417700B7C1B602
:100246008176407200B2C1B3817340B10171C07052
:1002560080B041500090C191815140930153C052EA
:10026600809241960156C057809741550095C1949A
:100276008154409C015CC05D809D415F009FC19E92
:10028600815E405A009AC19B815B40990159C058D2
:10029600809841880148C0498089414B008BC18ABA
:1002A600814A404E008EC18F814F408D014DC04C1A
:1002B600808C41440084C185814540870147C04602
:1002C600808641820142C043808341410081C180D2
:0302D60081404024
:10172800E52EF0E536A3F0E535F536753500E536F6
:10173800A3F022E0FEA3E0780622F5308E2F7BFF8F
:0817480022E4F0A3F0A3F0225B
:100C4100121795C200C201C208C209C202C203C280
:100C51000AC20BC204C205C20CC20D12133D12130B
:100C6100B9C294C290D2AFC228E4F5EC302105C2DA
:100C710021120ABB1215E330221112150F20240391
:100C8100020D09C2241202D9020D0930181BC21823
:100C910012168E90000C12173BC333CE33CED8F907
:100CA1001217427A007976805830191BC219121630
:100CB1001D90000E12173BC333CE33CED8F9121755
:100CC100427A00798B803A301A1BC21A1215A89009
:100CD100001012173BC333CE33CED8F91217427A24
:100CE1000079A0801C301B20C21B12002E90001224
:100CF10012173BC333CE33CED8F91217427A00799B
:100D0100B5AD32AC31120F09202003020C6A7A0012
:100D110079C9120DBAC220E4F5ECE53C6401701DFD
:100D21003025089000001217288006900000121745
:100D310049C20412133DE4900016020DAAE53C6479
:100D410002701D30250890000312172880069000BC
:100D510003121749C20512133DE4900017F08051A8
:100D6100E53C6403702030250890000612172880A6
:100D710009E4900006F0A3F0A3F0C20C1213B9E449
:100D8100900018F0802BE53C640470253025089014
:100D910000091217288009E4900009F0A3F0A3F0DC
:100DA100C20D1213B9E4900019F07A0079D5120D31
:100DB100BA1216C6C225020C6A7BFFAD32AC3112E3
:030DC1000F0922F5
:0400260075B283220A
:1017500075F1FD75A41075D4CE75D5FF75E10175D1
:10176000E240D294D290C297C293C296C292C295DE
:03177000C2912201
:10165600C28FD28EC28DC28CC28BC28AC289C28808
:10166600758920758E48758D96E4F5C875CA3F75DF
:10167600CBB075CC3F75CDB07591047592977593C7
:08168600407594977595402210
:041821007598102284
:0918180075B9F1E4F596F597228B
:0F17F30053D9BFE4F5D975EBEE43D940F5EC229D
:1017CA00E4FFFE75FF800FBF00010EBE01F8BF5E89
:0417DA00F575EF02B0
:0117DE0022E8
:1017DF00C2AFC2AED2ADD2ACC2ABC2AAC2A9C2A86E
:0417EF0075E68022F9
:1010C900E4900012F0A3F0900010F0A3F090000E4D
:1010D900F0A3F090000CF0A3F0F522900019F09025
:1010E9000018F0900017F0900016F090001DF09095
:1010F900001CF090001BF090001AF0F52FF530F568
:1011090035F536C224C222C220C229C225C223F51E
:101119002EF53CC227900037F0A3F090006BF0A3A6
:10112900F090006DF0A3F090006FF0A3F0F52BF5AF
:1011390031F532F53FC218C219C21AC21BF52CF596
:101149002DC221900001F0A3F0900000F09000045E
:10115900F0A3F0900003F0900007F0A3F0900006D0
:10116900F090000AF0A3F0900009F0C226F53E22A3
:101795001200261217F3121656121821121750129C
:0B17A50018181217CA1210C90217DF33
:101773007F2812006BD2967F2812006BC296E52059
:10178300227F2812006BD2927F2812006BC292E54F
:02179300212211
:07006B00EF60031F80FA2281
:10133D00E52030E704D2978002C29712177330E68A
:10134D0004D2978002C29712177330E504D29780AA
:10135D0002C29712177330E404D2978002C297121B
:10136D00177330E304D2978002C29712177330E2DD
:10137D0004D2978002C29712177330E104D297807E
:10138D0002C29712177330E004D2978002C2977F82
:10139D002812006BD2967F2812006BC2967F2812FE
:0C13AD00006BD2957F2812006BC29522C5
:1013B900E52130E704D2938002C29312178430E604
:1013C90004D2938002C29312178430E504D2938029
:1013D90002C29312178430E404D2938002C293129A
:1013E900178430E304D2938002C29312178430E247
:1013F90004D2938002C29312178430E104D29380FD
:1014090002C29312178430E004D2938002C2937F00
:101419002812006BD2927F2812006BC2927F281289
:0C142900006BD2917F2812006BC2912250
:1000030075F002E546A424D9F582E5F03400F583C2
:10001300E493227439253AF582E43400F583E0222F
:03002300020923AC
:10092300C0E0C0F0C083C082C0D075D000C000C09A
:1009330004C006C0072098030209F0C298859946AF
:10094300E52C7008E546B42403752C01E52CB408A6
:100953000040030209DC900960F8282873020AA802
:1009630002097802097E02099202099A0209B40275
:1009730009CE0209D4752C02020AA8E546B4100D6B
:1009830075475B7548BF752C03C221804C80447545
:100993002C048546298042E54670028029E546D32A
:1009A3009419500B75370085463B752C05802A80BA
:1009B30022741E2537F582E43400F583E546F005FD
:1009C30037E537B53B13752C06800E752C07020AE5
:1009D300A8D221752C00020AA8E54862468547483B
:1009E300754700120003624774019362482099031C
:1009F300020AA8C299E52D24FD602C14603414600A
:100A03004314605414605924FA605A24F060642437
:100A13001B6003020AA875461075991075499975EC
:100A23004AFE752D03806AAF2A8F468F99752D0470
:100A3300805FAF288F468F99E53D6017752D05754B
:100A43003A00804D120016F546F599053AE53A65E8
:100A53003D703E752D068039854A99752D07804571
:100A63008549998027753A02752D1D90003AE0F566
:100A7300998032120016F599053AE53D2401FFE409
:100A830033FE7C00EFB53A1DECB50619752D0880D1
:100A930014E54A624685494A7549001200036249D2
:100AA300740193624AD007D006D004D000D0D0D0CE
:080AB30082D083D0F0D0E032C4
:05180E0042009C0000F7
:100FEC0090007CE0FBA3E475F0011206B5A9F0FAC1
:100FFC0022753D0490001AE0900039F090001BE03F
:10100C0090003AF090001CE090003BF090001DE046
:10101C0090003C22E0F9A3E0FAA3E0900086C9F02E
:10102C00A3EAF0A3E9F022900004F0A3F0900003EF
:10103C00F0900007F0A3F0900006F090000AF0A3E7
:10104C00F0900009F0221205F9752D02853D2875E6
:10105C00992322FFE0FBA3E0FAA3E0F922A3740199
:10106C00F0A37400F0A37439F0A3E4F0A37432F08D
:10107C0022C222E4F596F59722A3E0FAA3E0C394EA
:10108C0039FFEA9400FE2278397C007D017B017ADD
:10109C00007900227C007D0AAF03AE0202064AE40E
:1010AC0075F0011206F8EF020638F07B017A007930
:0D10BC007C22E034FFF0E0FEA3E0FFD32231
:100ABB00E52924FE6065147003020B6014700302B9
:100ACB000C1B24277003020C2324DC6003020C4054
:100ADB00E4F52290001EE0B4FF02D21090001FE05C
:100AEB00B4FF02D211900020E0B4FF02D2129000AA
:100AFB0021E0B4FF02D21312075D752A01753D0C7C
:100B0B00AF3D7E001210931210529000017401F051
:100B1B00A3F0900000F0E41210332275C804E4F542
:100B2B0031F532900001F0A3F0900000F012103379
:100B3B0090001EE0900016F090001FE0900017F060
:100B4B00900020E0900018F0900021E0900019F048
:100B5B00D2280216C690001EE0B4FF1C90001A7437
:100B6B00FFF0E4900016F0D200302213E53CB40104
:100B7B000EC20412107D8007E490001AF0C20090A0
:100B8B00001FE0B4FF1C90001B74FFF0E4900017F3
:100B9B00F0D201302213E53CB4020EC20512107DD7
:100BAB008007E490001BF0C201900020E0B4FF1C12
:100BBB0090001C74FFF0E4900018F0D20830221360
:100BCB00E53CB4030EC20C12107D8007E490001CB0
:100BDB00F0C208900021E0B4FF1C90001D74FFF0E0
:100BEB00E4900019F0D209302213E53CB4040EC294
:100BFB000D12107D8007E490001DF0C209752A03C9
:100C0B00120FFDF0121055E4F5EC12133D0213B95F
:100C1B00752A04120FFD8019753D04752ADDE53127
:100C2B00FF900039EFF0E532A3F0A37401F0A37449
:060C3B0005F01210552225
:1015E300302836900016E07030A3E0702CA3E07032
:1015F30028A3E070242099FDE52D640D60F7E52D07
:10160300641D60F1C228752A02753D0C1210937E89
:0A161300007F0C121052E4F5C8220B
:0C1802008F3D752D0D900039E0F5992206
:0B143500900083EB12102BAB05AA0403
:10144000E4900092F0A3F01210A0ED2430FF900081
:1014500092E475F0011206B5FC748625F0F58274ED
:10146000003CF583EFF01210A0AA06AB07EB4A7020
:10147000D6D3900093E09400900092E06480948032
:10148000401F74FFF5F012069FFE748625F0F5826A
:1014900074003EF583E090008312105F1210AB8061
:0114A000D07B
:0114A1002228
:10156200900083EB12102BD390008AE0940090003D
:1015720089E064809480402D9000861210601206EB
:101582001F6022900086120FF112061F9000831234
:10159200105F1210AB90008AE024FFF0900089E007
:0615A20034FFF080C222BC
:07117900900094EB12102B13
:101180001210692099FDE52D640D60F7E52D641DB1
:1011900060F190009DE004F0700690009CE004F087
:1011A000900097120FEF745B12063890009BE024BA
:1011B000FFF090009AE034FFF07B017A007997907D
:1011C000009CE0FCA3E0FD121435900097120FEF95
:1011D000745D120638900097120FEF7420120638D3
:1011E00090009BE024FEF090009A1210BE9401EE55
:1011F00064809480401DEF24FFFFEE34FFFE9000DA
:1012000094121020A3EEF0A3EFF07B017A007997FF
:10121000121562900097121060E412063890009741
:0612200012108502180205
:0D0F0900900077EB12102BA3ECF0A3EDF09D
:100F16001210692099FDE52D640D60F7E52D641D1D
:100F260060F190009DE004F0700690009CE004F0F3
:100F3600120FEC745B120638900080E024FFF090EC
:100F4600007FE034FF1210B690009CE0FCA3E0FDA9
:100F5600121435120FEC745D120638120FEC742061
:100F6600120638900080E024FEF090007F1210BE3A
:100F7600940CEE648094804020EF24F4FFEE34FF5E
:100F8600FEA3F0A3EFF0900077121020A3EEF0A3DB
:100F9600EF1210B61215628007E4900081F0A3F0FC
:100FA600120FEC743D120638900082E02401FF9087
:100FB6000081E03400FEC3900080E09FF090007F47
:100FC600E09E1210B690007AE0FEA3E0FFFDAC06AC
:100FD60012143590007C121060E412063890007CE2
:060FE60012108502180242
:03002B000216FCBE
:1016FC00C0E0C0D0C2CF0532E53270020531E52B17
:10170C007013752B63E53FC3944F4005753F008004
:0C171C0006053F8002152BD0D0D0E03233
:030073000217B0C1
:1017B000C0E0C0D053917F053EE53ED39403400581
:0A17C000753E00D224D0D0D0E032F4
:1012B200666972737400646F776E3B20636F6D7042
:1012C200203D20300066696E69736800646F776E36
:1012D2003B20636F6D70203D20303B206368616E60
:1012E20067652C20676F20757000646F776E3B20F6
:1012F200636F6D70203D20313B206D6F7265202041
:10130200676F20646F776E0075703B20636F6D703E
:10131200203D20313B206368616E676520676F2046
:10132200646F776E0075703B20636F6D70203D2097
:0B133200303B206D6F7265207570006D
:0418130041009E00F2
:100DC400F0A3F0900014F0A3F0C223F540F541F530
:100DD40033C224D22AC227227401F0E54CA3F0E5E1
:100DE4004BF54C754B00E54CA3F0227402F0E5275B
:100DF400A3F0E526F527752600E527A3F022E49065
:100E04000014F0A3F0900037F0A3F090006BF0A36F
:100E1400F090006D22FFED9FFDEC9EFCE0FAA3E054
:100E2400FBD39DEA9C22FF900075EEF0A3EFF0D374
:100E34009400EE940022D222C220D229C225E4F5E5
:100E440035F53622900014E0FCA3E0FDAE047802F0
:100E540022352FF52FF539753800E530F5968539AB
:100E64009722C20CC20DE4F52FF530F596F59722C2
:100E740034FFFC7B017A00790A75F002EFA4F58255
:100E840085F083EC8DF00206CB900075E0FEA3E0C4
:100E94002285354B85364C2285352685362722E436
:100EA400900001F0A3F0900000F0222541F541EEFE
:100EB4003540F540053322900004F0A3F090000380
:100EC400F022900007F0A3F0900006F02290000AB0
:100ED400F0A3F0900009F0227535037536FFD22592
:100EE400C22922F0A3F090006F22C3E5309480E57C
:100EF4002F940022AE2FE530780622C3E53094C04B
:050F0400E52F94FF221F
:10150F0030870E900038E004F07006900037E0044A
:10151F00F030860E90006CE004F0700690006BE0E7
:10152F0004F030830E90006EE004F0700690006DB2
:10153F00E004F030820E900070E004F0700690002E
:10154F006FE004F0900015E004F07006900014E0D6
:03155F0004F02273
:10168E00900016E0FFB40107752E01C202800FEF25
:10169E00B40207752E02D2028004120EA322753CEC
:1016AE0001D204C205120E6612133D1213B9120EA8
:0816BE003A900037120DC4221E
:10161D00900017E0FFB40107752E01C2038010EF93
:10162D00B40207752E02D2038005E4120EBB22759B
:10163D003C02C204D205120E6612133D1213B912EA
:09164D000E3A90006B120DC4224C
:1015A800900018E0FFB40107752E01C20A8010EF01
:1015B800B40207752E02D20A8005E4120EC62275FF
:1015C8003C03C204C205D20C120E6812133D12135A
:0B15D800B9120E3A90006D120DC422F3
:10002E00900019E0FFB40107752E01C20B8010EF8E
:10003E00B40207752E02D20B8005E4120ED1227582
:10004E003C04C204C205C20CD20D120E6A12133D3C
:0D005E001213B9120E3A90006F120DC42259
:1002D900302A08C22A120E020203E1E53C640170C9
:1002E9003B120E48CEC313CE13D8F9120E2A401F63
:1002F900120E8D900037120E194005D2270203F411
:10030900C3EB9FEA9E40030203F4C2270203F4E40D
:10031900900014F0A3F09000370203E4E53C640276
:10032900703B120E48CEC313CE13D8F9120E2A40D1
:100339001F120E8D90006B120E194005D227020371
:10034900F4C3EB9FEA9E40030203F4C2270203F4BD
:10035900E4900014F0A3F090006B0203E4E53C6420
:1003690003703B120E48CEC313CE13D8F9120E2ACE
:100379004023120E8DFFED9FFDEC9EFC90006D1247
:100389000E204005D2270203F4C3EB9FEA9E505B7F
:10039900C2270203F4E4900014120E12803DE53CDA
:1003A9006404703B120E48CEC313CE13D8F9120E53
:1003B9002A4021120E8DFFED9FFDEC9EFC90006FEF
:1003C900120E204004D2278022C3EB9FEA9E501BC5
:1003D900C2278017E4900014120EE7F0A3F022124E
:1003E9000E02120EE7F0A3F002044D120E02120ED5
:1003F900E7F0A3F020235230293C30272D120EEECE
:100409005009E4F535F536D22580397A1279B212D8
:100419000515120EF8CEC313CE13D8F9F5418E4047
:10042900753301D223C2290204C4120EFF500302FC
:100439000504120EDC22D3E530943FE52F940040E9
:10044900030204C4C222D220222029792027547A07
:100459001279B8120515120EF8CEC313CE13D8F9B6
:1004690024FFFFEE34FFFEEF120EAFE533C394080D
:10047900401D7A1279C712051FAE40E5417803CEB7
:10048900C313CE13D8F9F5368E35D225C22322D21D
:100499002974402530F530E4120E557BFF7A127924
:1004A900CE8045120EEE5013E4F535F536D225C24D
:1004B90022D2207BFF7A1279EC802D74C02530F589
:1004C9003074FF803D302727120EF8CEC313CE13A8
:1004D900D8F9120EAFC22974C02530F53074FF1255
:1004E9000E557BFF7A13790AAD32AC31020F09122E
:1004F9000EFF50127A13792712051F74402530F523
:0B05090030E4120E5522120EDCC2235B
:10051400227BFFAD32AC31120F09227BFFAD32AC2E
:0505240031120F092255
:10075D00120EA3120EBB120EC6120ED1F5EC3010F6
:10076D005090001604F012168E12150F302403123D
:10077D0009003020F4302539120E959000167402C0
:10078D00F012168E12150F3024031209003020F4CA
:10079D0030251E120E9C7F0112091BB4010890001A
:1007AD0000120DDC800BE534B40206900000120D32
:1007BD00EFE4F5EC30115090001704F012161D12F5
:1007CD00150F3024031209093020F4302539120E8B
:1007DD00959000177402F012161D12150F30240398
:1007ED001209093020F430251E120E9C7F021209C9
:1007FD001BB40108900003120DDC800BE534B4022C
:10080D0006900003120DEFE4F5EC30125490001831
:10081D0004F01215A812150F3024031209123020FE
:10082D00F430253D120E959000187402F01215A8A3
:10083D0012150F3024031209123020F43025221224
:10084D000E9C7F031214A28F34E534B4010890007E
:10085D0006120DDC800BE534B40206900006120D75
:10086D00EFE4F5EC30135E90001904F012002E1237
:10087D00150F302408C2241202D9E4F5EC3020EF14
:10088D00302542120E959000197402F012002E12AE
:10089D00150F302408C2241202D9E4F5EC3020EFF4
:1008AD00302522120E9C7F041214A28F34E534B42D
:1008BD000108900009120DDC800BE534B40206909E
:1008CD000009120DEFC204C205C20CC20D12133D78
:1008DD001213B9E4900019F0900018F0900017F081
:1008ED00900016F0F53FC225C220C21BC21AC219D4
:1008FD00C21822C2241202D9E4F5EC22C22412023B
:10090D00D9E4F5EC22C2241202D9E4F5EC2212143A
:06091D00A28F34E5342234
:1014A200D3E54C9400E54B9402400DE4254CF54302
:1014B200E54B34FEF542800CC3E4954CF5437402CF
:1014C200954BF542D3E5279400E5269402400DE4BE
:1014D2002527F545E52634FEF544800CC3E495271F
:1014E200F54574029526F544D3E5439545E54295C5
:1014F20044400DE52724ECFDE526120E747F0222FE
:0D150200E54C24ECFDE54B120E747F012238
:1016C600E490009EF090009EE0FFC39404502674C0
:1016D600162FF582E43400F583E0601190009EE059
:1016E600F87401088002C333D8FCF5232290009ECB
:0616F600E004F080D022A8
:10123200020C41E493A3F8E493A34003F68001F285
:1012420008DFF48029E493A3F85407240CC8C333BD
:10125200C4540F4420C8834004F456800146F6DF8C
:10126200E4800B010204081020408090180EE47EF6
:10127200019360BCA3FF543F30E509541FFEE49381
:10128200A360010ECF54C025E060A840B8E493A348
:10129200FAE493A3F8E493A3C8C582C8CAC583CA73
:1012A200F0A3C8C582C8CAC583CADFE9DEE780BE2B
:0118170000D0
:10052900E709F608DFFA8046E709F208DFFA803EB4
:1005390088828C83E709F0A3DFFA8032E309F608A1
:10054900DFFA8078E309F208DFFA807088828C8309
:10055900E309F0A3DFFA806489828A83E0A3F608BD
:10056900DFFA805889828A83E0A3F208DFFA804C97
:1005790080D280FA80C680D4806980F2803380106E
:1005890080A680EA809A80A880DA80E280CA8033D7
:1005990089828A83ECFAE493A3C8C582C8CCC5834F
:1005A900CCF0A3C8C582C8CCC583CCDFE9DEE7801F
:1005B9000D89828A83E493A3F608DFF9ECFAA9F09E
:1005C900EDFB2289828A83ECFAE0A3C8C582C8CCF4
:1005D900C583CCF0A3C8C582C8CCC583CCDFEADE0D
:1005E900E880DB89828A83E493A3F208DFF980CC6F
:1005F90088F0EF60010E4E60C388F0ED2402B40468
:100609000050B9F582EB2402B4040050AF2323450E
:06061900822390057973B5
:10061F00BB010689828A83E0225002E722BBFE02D9
:09062F00E32289828A83E493220C
:10063800BB010689828A83F0225002F722BBFE01A1
:02064800F3229B
:10064A00BC000BBE0029EF8DF084FFADF022E4CC94
:10065A00F875F008EF2FFFEE33FEEC33FCEE9DEC5D
:10066A00984005FCEE9DFE0FD5F0E9E4CEFD22EDA3
:10067A00F8F5F0EE8420D21CFEADF075F008EF2FED
:10068A00FFED33FD4007985006D5F0F222C398FDDE
:05069A000FD5F0EA227B
:10069F00C5F0F8A3E028F0C5F0F8E58215827002E6
:0606AF001583E038F02283
:1006B500A3F8E0C5F025F0F0E582158270021583F8
:0606C500E0C838F0E82255
:1006CB00F8BB0111E58229F582E5833AF583E8F061
:1006DB00E5F0A3F0225009E92582C8F608A6F0221E
:0D06EB00BBFE09E92582C8F2E5F008F22205
:1006F800BB010789828A8302072A5006C9F8C90202
:10070800071ABBFE06C9F8C902074189828A830213
:02071800075187
:10071A00FAE6FB0808E6F925F0F618E6CA3AF622E0
:10072A00F8E0FBA3A3E0F925F0F0E5821582700258
:07073A001583E0FA38F022FC
:10074100FAE2FB0808E2F925F0F218E2CA3AF222CD
:0C075100E493FB740193FA740293F92204
:00000001FF
