:0300000002116C7E
:0C116C00787FE4F6D8FD75816C0211B3A9
:1008C3000000C0C1C1810140C30103C00280C24115
:1008D300C60106C00780C7410500C5C1C4810440E5
:1008E300CC010CC00D80CD410F00CFC1CE810E4095
:1008F3000A00CAC1CB810B40C90109C00880C841A5
:10090300D80118C01980D9411B00DBC1DA811A4014
:100913001E00DEC1DF811F40DD011DC01C80DC41E4
:100923001400D4C1D5811540D70117C01680D64114
:10093300D20112C01380D3411100D1C1D081104024
:10094300F00130C03180F1413300F3C1F281324014
:100953003600F6C1F7813740F50135C03480F441E4
:100963003C00FCC1FD813D40FF013FC03E80FE4194
:10097300FA013AC03B80FB413900F9C1F8813840A4
:100983002800E8C1E9812940EB012BC02A80EA4114
:10099300EE012EC02F80EF412D00EDC1EC812C40E4
:1009A300E40124C02580E5412700E7C1E681264014
:1009B3002200E2C1E3812340E10121C02080E04124
:1009C300A00160C06180A1416300A3C1A281624014
:1009D3006600A6C1A7816740A50165C06480A441E4
:1009E3006C00ACC1AD816D40AF016FC06E80AE4194
:1009F300AA016AC06B80AB416900A9C1A8816840A4
:100A03007800B8C1B9817940BB017BC07A80BA4113
:100A1300BE017EC07F80BF417D00BDC1BC817C40E3
:100A2300B40174C07580B5417700B7C1B681764013
:100A33007200B2C1B3817340B10171C07080B04123
:100A4300500090C191815140930153C05280924113
:100A5300960156C057809741550095C194815440E3
:100A63009C015CC05D809D415F009FC19E815E4093
:100A73005A009AC19B815B40990159C058809841A3
:100A8300880148C0498089414B008BC18A814A4013
:100A93004E008EC18F814F408D014DC04C808C41E3
:100AA300440084C185814540870147C04680864113
:100AB300820142C043808341410081C18081404023
:100C7000120003C200C201C208C209C202C203C2FA
:100C80000AC20BC204C205C20CC20D120F451210DB
:100C900008C294C290D2AFC22875EC00302105C2C0
:100CA000211206C212147630220D12142330247140
:100CB000C224120076806A301818C21812127FAE51
:100CC00043E5447806C333CE33CED8F9F53C8E3BAA
:100CD000804F301918C2191212E8AE45E546780661
:100CE000C333CE33CED8F9F53C8E3B8034301A185E
:100CF000C21A121351AE47E5487806C333CE33CE3D
:100D0000D8F9F53C8E3B8019301B16C21B1213BA62
:100D1000AE49E54A7806C333CE33CED8F9F53C8EDA
:100D20003B202003020C99C22075EC00E5506401C1
:100D3000702D302516853A2DAF42EFF52EE541F5A1
:100D400042754100AF42EFF52F8009752D00752ED9
:100D500000752F00C204120F45755A00020DF3E50D
:100D6000506402702C302516853A30AF42EFF531D1
:100D7000E541F542754100AF42EFF532800975302B
:100D800000753100753200C205120F45755B008099
:100D900062E5506403702C302516853A33AF42EF7C
:100DA000F534E541F542754100AF42EFF535800974
:100DB000753300753400753500C20C121008755C6F
:100DC000008030E5506404702A302516853A36AF2D
:100DD00042EFF537E541F542754100AF42EFF53896
:100DE0008009753600753700753800C20D1210087D
:0C0DF000755D00121519C225020C992235
:04001F0075B2832211
:1015420075F1FD75A41075D4CE75D5FF75E10175E1
:10155200E240D294D290C297C293C296C292C295EE
:03156200C2912211
:10002E00C28FD28EC28DC28CC28BC28AC289C28846
:10003E00758920758E48758D9675C80075CA3F7581
:10004E00CBB075CC3F75CDB0759104759297759305
:08005E0040759497759540224E
:040026007598102297
:0A15A30075B9F175960075970022E6
:1015930053D9BF75D90075EBEE43D94075EC0022E2
:1014EF0075080075090075FF80750800750900C340
:1014FF00E509945EE50864809481500A0509E509C1
:09150F007002050880E975EF0285
:0115180022B0
:10157F00C2AFC2AED2ADD2ACC2ABC2AAC2A9C2A8D0
:04158F0075E680225B
:1011F800752200755D00755C00755B00755A007599
:101208006100756000755F00755E00753B00753C98
:1012180000754100754200C224C222C220C229C200
:1012280025C223753A00755000C22790001BE4F0D0
:10123800A3F0900036F0A3F0900038F0A3F09000EF
:101248003AF0A3F0F52BF53DF53EF553C218C21957
:10125800C21AC21BF52CF539C221F52EF52FF52D32
:10126800F531F532F530F534F535F533F537F53830
:07127800F536C226F55222F3
:1000030012001F12159312002E120026121542120F
:0C00130015A31214EF1211F812157F2231
:0B0066008F0CE50C6004150C80F822E4
:100F4500E52030E704D2978002C2977F2812006619
:100F5500D296120066C296E52030E604D29780024A
:100F6500C2977F28120066D296120066C296E520C7
:100F750030E504D2978002C2977F28120066D29688
:100F8500120066C296E52030E404D2978002C2972B
:100F95007F28120066D296120066C296E52030E3DD
:100FA50004D2978002C2977F28120066D29612005B
:100FB50066C296E52030E204D2978002C2977F2868
:100FC500120066D296120066C296E52030E104D280
:100FD500978002C2977F28120066D296120066C2D9
:100FE50096E52030E004D2978002C2977F28120050
:100FF50066D296120066C296120066D295120066F7
:03100500C295226F
:10100800E52130E704D2938002C2937F281200665C
:10101800D292120066C292E52130E604D293800291
:10102800C2937F28120066D292120066C292E5210E
:1010380030E504D2938002C2937F28120066D292D0
:10104800120066C292E52130E404D2938002C29372
:101058007F28120066D292120066C292E52130E320
:1010680004D2938002C2937F28120066D2921200A3
:1010780066C292E52130E204D2938002C2937F28AF
:10108800120066D292120066C292E52130E104D2C3
:10109800938002C2937F28120066D292120066C221
:1010A80092E52130E004D2938002C2937F28120097
:1010B80066D292120066C292120066D2911200663F
:0310C800C29122B0
:03002300020AC30B
:100AC300C0E0C0F0C083C082C0D075D000C000C0F9
:100AD30006C007209803020BB2C298859962E52CE1
:100AE3007008E562B42403752C01E52C120F1F0C6A
:100AF3005F000B11010B17020B31030B39040B5C65
:100B0300050B77060B830700000B8B020C5F752C1C
:100B130002020C5FE562B4100D75675B7568BF7503
:100B23002C03C2218062752C00020C5F805A752C45
:100B3300048562298052E5627005752C068049E5BB
:100B430062D39419500B754B0085624F752C058049
:100B530037752C00020C5F802FAF4B74022FF58288
:100B6300E43400F583E562F0054BE54BB54F1975A9
:100B73002C068014752C07020C5F752C00020C5F89
:100B8300D221752C00020C5FE56862628567687587
:100B93006700AF6275F002EFA424C3F582E5F03479
:100BA30008F583E493FE740193FF6268EE626720A5
:100BB3009903020C5FC299E539120F1F0BD5020B83
:100BC300E6030BF1040C08050C26060C2E070000A7
:100BD3000C5F756210759910756999756AFE7539A0
:100BE300038052AF2A8F628F997539048047AF28EB
:100BF3008F628F99E5516008753905754E00803510
:100C03007539068030AF4E741D2FF582E43400F53C
:100C130083E0FFF562F599054EE54EB55117753939
:100C2300068012856A997539078031856999753906
:100C33000880298027E56A626285696A756900AF61
:100C43006275F002EFA424C3F582E5F03408F5835E
:100C5300E493FE740193FF626AEE6269D007D006E3
:0D0C6300D000D0D0D082D083D0F0D0E032CD
:1006C200E529120F1F06DA0107600207A90308785D
:1006D20004089ADD000008C2752200900002E0FFC3
:1006E200B4FF02D210900003E0FFB4FF02D21190D7
:1006F2000004E0FFB4FF02D212900005E0FFB4FF55
:1007020002D213120444752A0175510CAF517E00B6
:100712007B007A00792DC003C002C0010B7A0079F8
:100722001DA801AC027D01D001D002D003120ECC73
:10073200753902855128759923752E01752F01751A
:100742002D01753100753200753000753400753534
:10075200007533007537007538007536002275C88C
:1007620004753D00753E00752E00752F00752D0035
:1007720075310075320075300075340075350075BD
:100782003300753700753800753600900002E0FFBF
:10079200F55AA3E0FFF55BA3E0FFF55CA3E0FFF5EC
:1007A2005DD22812151922900002E0FFB4FF1C75D9
:1007B2005EFF755A00D200302216E550B40111C214
:1007C20004C2227596007597008005755E00C2000E
:1007D200900003E0FFB4FF1C755FFF755B00D20160
:1007E200302216E550B40211C205C2227596007578
:1007F20097008005755F00C201900004E0FFB4FF1E
:100802001C7560FF755C00D208302216E550B403F7
:1008120011C20CC2227596007597008005756000A2
:10082200C208900005E0FFB4FF1C7561FF755D0012
:10083200D209302216E550B40411C20DC2227596B7
:10084200007597008005756100C209752A0375510C
:100852000490001DE55EF0A3E55FF0A3E560F0A360
:10086200E561F075390285512875992375EC0012FE
:100872000F4512100822752A0475510490001DE5D7
:100882005EF0A3E55FF0A3E560F0A3E561F07539E2
:100892000285512875992322755104752ADDE53D9B
:1008A200FF3395E0FE90001DEFF0AF3EEFA3F0A303
:1008B2007401F0A37405F0753902855128759923E6
:0108C2002213
:10147600302849E55A7045E55B7041E55C703DE50D
:101486005D600122C228752A0275510C7B007A0024
:10149600792DC003C002C0010B7A00791DA801ACEA
:1014A600027D01D001D002D0037E007F0C120ECC4B
:0D14B60075390285512875992375C80022EB
:03002B000214C3F9
:1014C300C0E0C0D0C2CF053EE53E7002053DE52B2E
:1014D3007013752B63E553C3944F40057553008018
:0C14E3000605538002152BD0D0D0E0325B
:030073000215650E
:10156500C0E0C0D053917F0552E552D394034005A6
:0A157500755200D224D0D0D0E0322D
:0315AD00010E002C
:1014230030870E90001CE004F0700690001BE0046F
:10143300F030860E900037E004F07006900036E03E
:1014430004F030830E900039E004F0700690003809
:10145300E004F030820E90003BE004F07006900050
:101463003AE004F0900001E004F07006900000E020
:0314730004F02260
:10127F00E55AB40107753A01C2028016E55AB40265
:10128F0007753A02D202800A752E00752F00752D50
:10129F000022755001D204C205C20CC20D753B006D
:1012AF00753C00759600759700120F45121008D205
:1012BF0022C220D229C22575410075420090001B21
:1012CF00E4F0A3F0900000F0A3F0C223F554F5551D
:0912DF00F53FC224D22AC22722E5
:1012E800E55BB40107753A01C2038016E55BB402F9
:1012F80007753A02D203800A7531007532007530DD
:101308000022755002C204D205C20CC20D753B0002
:10131800753C00759600759700120F45121008D29B
:1013280022C220D229C2257541007542009000369C
:10133800E4F0A3F0900000F0A3F0C223F554F555B3
:09134800F53FC224D22AC227227B
:10135100E55CB40107753A01C20A8016E55CB40286
:1013610007753A02D20A800A753400753500753363
:101371000022755003C204C205D20CC20D753B0098
:10138100753C00759600759700120F45121008D232
:1013910022C220D229C22575410075420090003831
:1013A100E4F0A3F0900000F0A3F0C223F554F5554A
:0913B100F53FC224D22AC2272212
:1013BA00E55DB40107753A01C20B8016E55DB4021A
:1013CA0007753A02D20B800A7537007538007536F0
:1013DA000022755004C204C205C20CD20D753B002E
:1013EA00753C00759600759700120F45121008D2C9
:1013FA0022C220D229C22575410075420090003AC6
:10140A00E4F0A3F0900000F0A3F0C223F554F555E0
:09141A00F53FC224D22AC22722A8
:10007600302A22C22A900000E4F0A3F090001BF080
:10008600A3F0900036F0A3F0900038F0A3F09000B3
:100096003AF0A3F022E55064017069900000E0FE9A
:1000A600A3E0FF7802CEC313CE13D8F9F50B8E0A60
:1000B600D39400E50A9400403A900000E0FEA3E0E5
:1000C600FF950BFFEE950AFE90001BE0FCA3E0FDFA
:1000D600D39FEC9E4005D22702027590001BE0FEDE
:1000E600A3E0FFC3950BEE950A4003020275C227F3
:1000F600020275900000E4F0A3F090001BF0A3F05C
:1001060022020275E55064027069900000E0FEA3C9
:10011600E0FF7802CEC313CE13D8F9F50B8E0AD3BF
:100126009400E50A9400403A900000E0FEA3E0FF48
:10013600950BFFEE950AFE900036E0FCA3E0FDD39A
:100146009FEC9E4005D227020275900036E0FEA382
:10015600E0FFC3950BEE950A4003020275C2270223
:100166000275900000E4F0A3F0900036F0A3F022B0
:10017600020275E55064037069900000E0FEA3E09A
:10018600FF7802CEC313CE13D8F9F50B8E0AD3949B
:1001960000E50A9400403A900000E0FEA3E0FF95D7
:1001A6000BFFEE950AFE900038E0FCA3E0FDD39F1E
:1001B600EC9E4005D227020275900038E0FEA3E0CF
:1001C600FFC3950BEE950A4003020275C227020291
:1001D60075900000E4F0A3F0900038F0A3F022023E
:1001E6000275E55064047063900000E0FEA3E0FF32
:1001F6007802CEC313CE13D8F9F50B8E0AD394002A
:10020600E50A94004035900000E0FEA3E0FF950B60
:10021600FFEE950AFE90003AE0FCA3E0FDD39FECCA
:100226009E4004D227804890003AE0FEA3E0FFC338
:10023600950BEE950A5038C2278034900000E4F002
:10024600A3F090003AF0A3F0228024900000E4F09E
:10025600A3F090001BF0A3F0900036F0A3F09000FE
:1002660038F0A3F090003AF0A3F0C222D2202290F8
:100276000000E4F0A3F090001BF0A3F0900036F02D
:10028600A3F0900038F0A3F090003AF0A3F03023EA
:100296000302034720290302031D30274AC3E53C16
:1002A6009480E53B9400500D754100754200D225BF
:1002B600C222D22022AE3BE53C7806CEC313CE1333
:1002C600D8F9F5558E54753F01D223C22974C0253D
:1002D6003CF53C74FF353BF53BF54D754C00AF3CAA
:1002E600EFF596854D9722C3E53C94C0E53B94FF18
:1002F600501A7440253CF53CE4353BF53B754C0003
:10030600754DFFAF3CEFF596854D97227541037508
:1003160042FFD225C22922D3E53C943FE53B940017
:10032600401A74C0253CF53C74FF353BF53BF54D52
:10033600754C00AF3CEFF596854D9722C222D22030
:10034600223029030203DB202759AE3BE53C780621
:10035600CEC313CE13D8F9FF24FFFFEE34FFFEEF12
:100366002555F555EE3554F554053FE53FC3942024
:100376004016AE54E5557805CEC313CE13D8F9F51D
:10038600428E41D225C22322D2297440253CF53C17
:10039600E4353BF53BF54D754C00AF3CEFF59685E6
:1003A6004D9722C3E53C9480E53B9400500D754182
:1003B60000754200D225C222D2202274C0253CF507
:1003C6003C74FF353BF53BF54D754C00AF3CEFF506
:1003D60096854D9722302735AE3BE53C7806CEC351
:1003E60013CE13D8F9FF2555F555EE3554F55405BA
:1003F6003FC22974C0253CF53C74FF353BF53BF5FF
:100406004D754C00AF3CEFF596854D9722C3E53C04
:1004160094C0E53B94FF50197440253CF53CE43507
:100426003BF53BF54D754C00AF3CEFF596854D978A
:0D043600227541037542FFD225C229C22361
:010443002296
:10044400752E00752F00752D0075310075320075FD
:100454003000753400753500753300753700753814
:100464000075360075EC002010030204F4755A017F
:1004740012127F121423302408C22412007675EC61
:10048400003020EF800280EB30256585416B85428A
:100494006C755A0212127F121423302408C22412DB
:1004A400007675EC003020EF800280EB302541852A
:1004B40041268542277F011210CB8F40E540B401CD
:1004C40016752D01AF6CEFF52EE56BF56C756B00B1
:1004D400AF6CEFF52F8019E540B40214752D02AF0F
:1004E40027EFF52EE526F527752600AF27EFF52F24
:1004F40075EC00201103020580755B011212E812ED
:100504001423302408C22412007675EC003020EF46
:10051400800280EB30256585416B85426C755B02FA
:100524001212E8121423302408C22412007675EC47
:10053400003020EF800280EB302541854126854242
:10054400277F021210CB8F40E540B40116753001AD
:10055400AF6CEFF531E56BF56C756B00AF6CEFF5D7
:10056400328019E540B40214753002AF27EFF5313B
:10057400E526F527752600AF27EFF53275EC002048
:10058400120302060C755C01121351121423302459
:1005940008C22412007675EC003020EF800280EB54
:1005A40030256585416B85426C755C0212135112CE
:1005B4001423302408C22412007675EC003020EF96
:1005C400800280EB3025418541268542277F031236
:1005D40010CB8F40E540B40116753301AF6CEFF5D5
:1005E40034E56BF56C756B00AF6CEFF5358019E590
:1005F40040B40214753302AF27EFF534E526F5272E
:10060400752600AF27EFF53575EC002013030206BD
:1006140098755D011213BA121423302408C22412EF
:10062400007675EC003020EF800280EB3025658584
:10063400416B85426C755D021213BA121423302487
:1006440008C22412007675EC003020EF800280EBA3
:100654003025418541268542277F041210CB8F40E7
:10066400E540B40116753601AF6CEFF537E56BF56F
:100674006C756B00AF6CEFF5388019E540B402146B
:10068400753602AF27EFF537E526F527752600AF57
:1006940027EFF538C204C205C20CC20D120F451271
:1006A4001008755D00755C00755B00755A00755324
:0E06B40000C225C220C21BC21AC219C21822DF
:1010CB008F0DD3E56C9400E56B9402400EE56C2418
:1010DB0000F557E56B34FEF556800CC3E4956CF5C3
:1010EB00577402956BF556D3E5279400E5269402C9
:1010FB00400EE5272400F559E52634FEF558800C03
:10110B00C3E49527F55974029526F558D3E5579501
:10111B0059E55695584025E52724ECFFE52634FF85
:10112B00FE7B007A007941AD0D75F002EDA4F582DE
:10113B0085F083EE8FF0120EF27F0222E56C24EC29
:10114B00FFE56B34FFFE7B007A007941AD0D75F046
:10115B0002EDA4F58285F083EE8FF0120EF27F0183
:01116B002261
:10151900750E00E50EC39404501EAF0E745A2FF8D1
:10152900E6FF6010AF0EA8077401088002C333D824
:09153900FCF52322050E80DB22E3
:011DFF00FFE4
:10117800020C70E493A3F8E493A34003F68001F211
:1011880008DFF48029E493A3F85407240CC8C33378
:10119800C4540F4420C8834004F456800146F6DF47
:1011A800E4800B01020408102040809015ADE47E15
:1011B800019360BCA3FF543F30E509541FFEE4933C
:1011C800A360010ECF54C025E060A840B8E493A303
:1011D800FAE493A3F8E493A3C8C582C8CAC583CA2E
:1011E800F0A3C8C582C8CAC583CADFE9DEE780BEE6
:0115B000003A
:100DFC00E709F608DFFA8046E709F208DFFA803ED9
:100E0C0088828C83E709F0A3DFFA8032E309F608C5
:100E1C00DFFA8078E309F208DFFA807088828C832D
:100E2C00E309F0A3DFFA806489828A83E0A3F608E1
:100E3C00DFFA805889828A83E0A3F208DFFA804CBB
:100E4C0080D280FA80C680D4806980F28033801092
:100E5C0080A680EA809A80A880DA80E280CA8033FB
:100E6C0089828A83ECFAE493A3C8C582C8CCC58373
:100E7C00CCF0A3C8C582C8CCC583CCDFE9DEE78043
:100E8C000D89828A83E493A3F608DFF9ECFAA9F0C2
:100E9C00EDFB2289828A83ECFAE0A3C8C582C8CC18
:100EAC00C583CCF0A3C8C582C8CCC583CCDFEADE31
:100EBC00E880DB89828A83E493A3F208DFF980CC93
:100ECC0088F0EF60010E4E60C388F0ED2402B4048C
:100EDC000050B9F582EB2402B4040050AF23234533
:060EEC008223900E4C73FE
:100EF200F8BB0111E58229F582E5833AF583E8F032
:100F0200E5F0A3F0225009E92582C8F608A6F022EE
:0D0F1200BBFE09E92582C8F2E5F008F222D5
:100F1F00D083D082F8E4937012740193700DA3A361
:100F2F0093F8740193F5828883E473740293686075
:060F3F00EFA3A3A380DF75
:00000001FF
