:0300000002006695
:0C006600787FE4F6D8FD758161020AB5D0
:10055D000000C0C1C1810140C30103C00280C2417E
:10056D00C60106C00780C7410500C5C1C48104404E
:10057D00CC010CC00D80CD410F00CFC1CE810E40FE
:10058D000A00CAC1CB810B40C90109C00880C8410E
:10059D00D80118C01980D9411B00DBC1DA811A407E
:1005AD001E00DEC1DF811F40DD011DC01C80DC414E
:1005BD001400D4C1D5811540D70117C01680D6417E
:1005CD00D20112C01380D3411100D1C1D08110408E
:1005DD00F00130C03180F1413300F3C1F28132407E
:1005ED003600F6C1F7813740F50135C03480F4414E
:1005FD003C00FCC1FD813D40FF013FC03E80FE41FE
:10060D00FA013AC03B80FB413900F9C1F88138400D
:10061D002800E8C1E9812940EB012BC02A80EA417D
:10062D00EE012EC02F80EF412D00EDC1EC812C404D
:10063D00E40124C02580E5412700E7C1E68126407D
:10064D002200E2C1E3812340E10121C02080E0418D
:10065D00A00160C06180A1416300A3C1A28162407D
:10066D006600A6C1A7816740A50165C06480A4414D
:10067D006C00ACC1AD816D40AF016FC06E80AE41FD
:10068D00AA016AC06B80AB416900A9C1A88168400D
:10069D007800B8C1B9817940BB017BC07A80BA417D
:1006AD00BE017EC07F80BF417D00BDC1BC817C404D
:1006BD00B40174C07580B5417700B7C1B68176407D
:1006CD007200B2C1B3817340B10171C07080B0418D
:1006DD00500090C191815140930153C0528092417D
:1006ED00960156C057809741550095C1948154404D
:1006FD009C015CC05D809D415F009FC19E815E40FD
:10070D005A009AC19B815B40990159C0588098410C
:10071D00880148C0498089414B008BC18A814A407C
:10072D004E008EC18F814F408D014DC04C808C414C
:10073D00440084C185814540870147C0468086417C
:10074D00820142C043808341410081C1808140408C
:100AB500120003C200C201C208C209C202C203C2B7
:100AC5000AC20BC204C205C20CC20D120DA5120C3E
:100AD500CEC294C290D2AF752804D219E4F5EC3099
:100AE5001905C21912075D7FE8121197301A0D1208
:100AF500108F301C2DC21C1200768026302007C2B4
:100B050020120EA8801C302107C221120F0A801264
:100B1500302207C222120F6C8008302305C223122F
:100B25000FCE3018B7C218E4F5ECE5456401702224
:100B3500301D1485392CE53FF52DE53EF53F753E15
:100B450000E53FF52E8007E4F52CF52DF52EC204C2
:100B55008026E54564027025301D1485392FE53F53
:100B6500F530E53EF53F753E00E53FF5318007E49C
:100B7500F52FF530F531C205120DA58051E5456417
:100B8500037022301D14853932E53FF533E53EF516
:100B95003F753E00E53FF5348007E4F532F533F562
:100BA50034C20C8026E54564047023301D14853954
:100BB50035E53FF536E53EF53F753E00E53FF53752
:100BC5008007E4F535F536F537C20D120CCEC21D9A
:030BD500020AE130
:04001E0075B2832212
:1011280075F1FD75A41075D4CE75D5FF75E10175FF
:10113800E240D294D290C297C293C296C292C2950C
:03114800C291222F
:10002E00C28FD28EC28DC28CC28BC28AC289C28846
:10003E00758920758E48758D9675C80475CA3F757D
:10004E00CBB075CC3F75CDB0759104759297759305
:08005E0040759497759540224E
:040026007598102297
:0911AD0075B9F1E4F596F59722FD
:0F119E0053D9BFE4F5D975EBEE43D940F5EC22F8
:10116500E4FFFE75FF800FBF00010EBE01F8BF5EF4
:04117500F575EF021B
:011179002253
:10117A00C2AFC2AED2ADD2ACC2ABC2AAC2A9C2A8D9
:04118A0075E6802264
:100E3400E4F522F552F551F550F54FF556F555F513
:100E440054F553F53AF53BF53EF53FC21CC21AC2C0
:100E540018C224C21DC21BF539F545C21F90001BE0
:100E6400F0A3F0900036F0A3F0900038F0A3F090D7
:100E7400003AF0A3F0F52AF548C220C221C222C2EA
:100E840023F52BF538C219F52DF52EF52CF530F593
:100E940031F52FF533F534F532F536F537F535C23E
:040EA4001EF54722CE
:1000030012001E12119E12002E1200261211281227
:0B00130011AD121165120E3402117ABB
:09118E007F28121197D2967F28E8
:07119700EF60031F80FA2244
:100DA500E52030E704D2978002C29712118EC296D1
:100DB500E52030E604D2978002C29712118EC296C2
:100DC500E52030E504D2978002C29712118EC296B3
:100DD500E52030E404D2978002C29712118EC296A4
:100DE500E52030E304D2978002C29712118EC29695
:100DF500E52030E204D2978002C29712118EC29686
:100E0500E52030E104D2978002C29712118EC29676
:100E1500E52030E004D2978002C29712118EC29667
:0F0E25007F28121197D2957F28121197C295221C
:100CCE00E52130E704D2938002C2937F2812119758
:100CDE00D2927F28121197C292E52130E604D29368
:100CEE008002C2937F28121197D2927F28121197F9
:100CFE00C292E52130E504D2938002C2937F28127E
:100D0E001197D2927F28121197C292E52130E404F6
:100D1E00D2938002C2937F28121197D2927F28120B
:100D2E001197C292E52130E304D2938002C2937FE1
:100D3E0028121197D2927F28121197C292E5213074
:100D4E00E204D2938002C2937F28121197D2927F2F
:100D5E0028121197C292E52130E104D2938002C28B
:100D6E00937F28121197D2927F28121197C292E583
:100D7E002130E004D2938002C2937F28121197D2C1
:100D8E00927F28121197C2927F28121197D2917FCB
:070D9E0028121197C29122F7
:0300230002091FB0
:10091F00C0E0C0F0C083C082C0D075D000C000C09E
:10092F0007639080209803020A06C298859957E5BD
:10093F002B7008E557B42403752B01E52BB4080081
:10094F0040030209E390095BF8282873020AA60204
:10095F00097302097902098D0209950209AF02098B
:10096F00C90209D6752B02020AA6E557B4100D75F8
:10097F005C5B755DBF752B03C21980588050752B5A
:10098F0004855728804EE55770028029E557D39488
:10099F0019500B754000855744752B058036802EF6
:1009AF0074022540F582E43400F583E557F00540E5
:1009BF00E540B5441F752B06801AE557B55D0675E2
:1009CF002B07020AA68007E557B55C02D219752BD3
:1009DF0000020AA6E55D6257855C5D755C0075F0E7
:1009EF0002E557A4245DF582E5F03405F583E49321
:1009FF00625C740193625D209903020AA6C299E5B5
:100A0F003824FD602414602C14603B14605414606F
:100A1F005924056003020AA6755710759910755E63
:100A2F0099755FFE753803804BAF298F578F997576
:100A3F0038048040AF278F578F99E546601F753870
:100A4F0005754300802E741D2543F582E43400F5AF
:100A5F0083E0F557F5990543E543B5461775380615
:100A6F008012855F99753807802D855E99D219752B
:100A7F0038088023E55F6257855E5F755E0075F00D
:100A8F0002E557A4245DF582E5F03405F583E49380
:100A9F00625E740193625FD007D000D0D0D082D055
:060AAF0083D0F0D0E0321C
:10075D00E52824FE60741470030208371470030238
:10076D0008FD2403600302091EE4F522900002E057
:10077D00B4FF02D210900003E0B4FF02D21190003A
:10078D0004E0B4FF02D212900005E0B4FF02D213D0
:10079D0012034B75290175460CAF467E00781D7C02
:1007AD00007D017B007A00792C120CA8753802852A
:1007BD004627759923E4F52DF52EF52CF530F531F9
:1007CD00F52FF533F534F5328059900002E0F54FF1
:1007DD00A3E0F550A3E0F551A3E0F552752902759C
:1007ED00460CAF467E00781D7C007D017B007A00B3
:1007FD00792C120CA8753802854627759923E54F7B
:10080D007006F52DF52EF52CE5507006F530F53109
:10081D00F52FE5517006F533F534F532E5526003E9
:10082D0002091EF536F537F53522900002E0B4FFCA
:10083D001B7553FFE4F54FD200301A15E545B40191
:10084D0010C204C21AE4F596F5978005E4F553C27B
:10085D0000900003E0B4FF1B7554FFE4F550D20186
:10086D00301A15E545B40210C205C21AE4F596F525
:10087D00978005E4F554C201900004E0B4FF1B75A8
:10088D0055FFE4F551D208301A15E545B40310C2F1
:10089D000CC21AE4F596F5978005E4F555C208905B
:1008AD000005E0B4FF1B7556FFE4F552D209301A6E
:1008BD0015E545B40410C20DC21AE4F596F59780FE
:1008CD0005E4F556C20975290375460490001DE52A
:1008DD0053F0A3E554F0A3E555F0A3E556F07538B4
:1008ED0002854627759923E4F5EC120DA5020CCE71
:1008FD0075290475460490001DE553F0A3E554F0E9
:10090D00A3E555F0A3E556F0753802854627759990
:02091D00232293
:03002B000210E2DE
:1010E200C0E0C0D0C2CFE52A7035752A63E548C397
:1010F200944F400575480080020548E548B4010454
:10110200D220801DE548B41504D2218014E548B4EC
:101112002904D222800BE548B43D06D22380021571
:061122002AD0D0D0E0321B
:0300730002114B2C
:10114B00C0E0C0D053917F0547E547D394034005DA
:0A115B00754700D21CD0D0D0E0325E
:10108F0030870E90001CE004F0700690001BE00407
:10109F00F030860E900037E004F07006900036E0D6
:1010AF0004F030830E900039E004F07006900038A1
:1010BF00E004F030820E90003BE004F070069000E8
:1010CF003AE004F0900001E004F07006900000E0B8
:0310DF0004F022F8
:100EA800E54FB40107753901C2028014E54FB40259
:100EB80007753902D2028008E4F52DF52EF52C22AB
:100EC800754501D204C205C20CC20DE4F53AF53BE2
:100ED800F596F597120DA5120CCED21AC218D22487
:100EE800C21DE4F53EF53F90001BF0A3F090000012
:100EF800F0A3F0C21BF549F54AF53CC21CD225C245
:020F08001F22A6
:100F0A00E550B40107753901C2038014E550B402F3
:100F1A0007753902D2038008E4F530F531F52F223E
:100F2A00754502C204D205C20CC20DE4F53AF53B7E
:100F3A00F596F597120DA5120CCED21AC218D22424
:100F4A00C21DE4F53EF53F900036F0A3F090000094
:100F5A00F0A3F0C21BF549F54AF53CC21CD225C2E2
:020F6A001F2244
:100F6C00E551B40107753901C20A8014E551B40288
:100F7C0007753902D20A8008E4F533F534F53222CC
:100F8C00754503C204C205D20CC20DE4F53AF53B1B
:100F9C00F596F597120DA5120CCED21AC218D224C2
:100FAC00C21DE4F53EF53F900038F0A3F090000030
:100FBC00F0A3F0C21BF549F54AF53CC21CD225C280
:020FCC001F22E2
:100FCE00E552B40107753901C20B8014E552B40223
:100FDE0007753902D20B8008E4F536F537F5352260
:100FEE00754504C204C205C20CD20DE4F53AF53BB8
:100FFE00F596F597120DA5120CCED21AC218D22460
:10100E00C21DE4F53EF53F90003AF0A3F0900000CB
:10101E00F0A3F0C21BF549F54AF53CC21CD225C21D
:02102E001F227F
:1000760030251BC225E4900000F0A3F090001BF091
:10008600A3F0900036F0A3F09000380201E9E545B0
:1000960064017053900000E0FAA3E0FBAE02780220
:1000A600CEC313CE13D8F9FDAC06D39400EC94005E
:1000B6004028EB9DFFEA9CFE90001BE0FAA3E0FBC4
:1000C600D39FEA9E4005D21F020215C3EB9DEA9C10
:1000D6004003020215C21F020215E4900000F0A3BD
:1000E600F090001B0201EFE545640270539000009A
:1000F600E0FAA3E0FBAE027802CEC313CE13D8F922
:10010600FDAC06D39400EC94004028EB9DFFEA9CDE
:10011600FE900036E0FAA3E0FBD39FEA9E4005D2AC
:100126001F020215C3EB9DEA9C4003020215C21F83
:10013600020215E4900000F0A3F09000360201EFF1
:10014600E54564037052900000E0FAA3E0FBAE02BE
:100156007802CEC313CE13D8F9FDAC06D39400ECC7
:1001660094004028EB9DFFEA9CFE900038E0FAA33D
:10017600E0FBD39FEA9E4005D21F020215C3EB9D0A
:10018600EA9C4003020215C21F020215E490000019
:10019600F0A3F09000388051E5456404704F90005C
:1001A60000E0FAA3E0FBAE027802CEC313CE13D86A
:1001B600F9FDAC06D39400EC94004023EB9DFFEAD6
:1001C6009CFE90003AE0FAA3E0FBD39FEA9E40042F
:1001D600D21F803BC3EB9DEA9C5034C21F8030E4A3
:1001E600900000F0A3F090003AF0A3F022E4900013
:1001F60000F0A3F090001BF0A3F0900036F0A3F0FF
:10020600900038F0A3F090003AF0A3F00202EDE47B
:10021600900000F0A3F090001BF0A3F0900036F0E1
:10022600A3F0900038F0A3F090003AF0A3F0201B62
:100236005D30244A301F2EC3E53B9480E53A940096
:10024600500AE4F53EF53FD21D0202EDAE3AE53B1B
:100256007806CEC313CE13D8F9F54A8E49753C01FC
:10026600D21B02030FC3E53B94C0E53A94FF50034B
:10027600020326753E03753FFFD21DC22422D3E535
:100286003B943FE53A940040030203118059202431
:100296005D201F41AE3AE53B7806CEC313CE13D898
:1002A600F924FFFFEE34FFFEEF254AF54AEE354905
:1002B600F549053CE53CC394204016AE49E54A782D
:1002C60005CEC313CE13D8F9F53F8E3ED21DC21B01
:1002D60022D224804BC3E53B9480E53A9400500C2F
:1002E600E4F53EF53FD21DC21AD21822801D301FFA
:1002F60024AE3AE53B7806CEC313CE13D8F9254A89
:10030600F54AEE3549F549053CC22474C0253BF54E
:100316003B74FF8012C3E53B94C0E53A94FF501846
:100326007440253BF53BE4353AF53AF54275410014
:10033600E53BF59685429722753E03753FFFD21D34
:04034600C224C21BF0
:01034A002290
:10034B00E4F52DF52EF52CF530F531F52FF533F5CC
:10035B0034F532F536F537F535F5EC30106F754F62
:10036B0001120EA812108F301C08C21C120076E46A
:10037B00F5EC3018EF301D55853E60853F61754FAC
:10038B0002120EA812108F301C08C21C120076E449
:10039B00F5EC3018EF301D351210308F3DE53DB4C4
:1003AB000114752C01E561F52DE560F561756000B3
:1003BB00E561F52E8017E53DB40212752C02E5269A
:1003CB00F52DE525F526752500E526F52EE4F5EC4E
:1003DB0030116F755001120F0A12108F301C08C2AA
:1003EB001C120076E4F5EC3018EF301D55853E609D
:1003FB00853F61755002120F0A12108F301C08C214
:10040B001C120076E4F5EC3018EF301D351210306D
:10041B008F3DE53DB40114752F01E561F530E560C5
:10042B00F561756000E561F5318017E53DB40212A9
:10043B00752F02E526F530E525F526752500E52611
:10044B00F531E4F5EC30126F755101120F6C12108F
:10045B008F301C08C21C120076E4F5EC3018EF301C
:10046B001D55853E60853F61755102120F6C121050
:10047B008F301C08C21C120076E4F5EC3018EF30FC
:10048B001D351210308F3DE53DB40114753201E579
:10049B0061F533E560F561756000E561F534801752
:1004AB00E53DB40212753202E526F533E525F52656
:1004BB00752500E526F534E4F5EC30136F75520124
:1004CB00120FCE12108F301C08C21C120076E4F5EE
:1004DB00EC3018EF301D55853E60853F617552023B
:1004EB00120FCE12108F301C08C21C120076E4F5CE
:1004FB00EC3018EF301D351210308F3DE53DB40157
:10050B0014753501E561F536E560F561756000E55B
:10051B0061F5378017E53DB40212753502E526F516
:10052B0036E525F526752500E526F537C204C20507
:10053B00C20CC20D120DA5120CCEE4F552F551F5FD
:10054B0050F54FF548C21DC218C223C222C221C2A8
:02055B0020225C
:06103000853E25853F26E8
:10103600D3E5619400E5609402400DE42561F54C2A
:10104600E56034FEF54B800CC3E49561F54C740203
:101056009560F54BD3E5269400E5259402400DE412
:101066002526F54EE52534FEF54D800CC3E4952680
:10107600F54E74029525F54DD3E54C954EE54B9509
:091086004D40037F02227F01228C
:011DFF00F1F2
:100BD800E709F608DFFA8046E709F208DFFA803EFF
:100BE80088828C83E709F0A3DFFA8032E309F608EC
:100BF800DFFA8078E309F208DFFA807088828C8354
:100C0800E309F0A3DFFA806489828A83E0A3F60807
:100C1800DFFA805889828A83E0A3F208DFFA804CE1
:100C280080D280FA80C680D4806980F280338010B8
:100C380080A680EA809A80A880DA80E280CA803321
:100C480089828A83ECFAE493A3C8C582C8CCC58399
:100C5800CCF0A3C8C582C8CCC583CCDFE9DEE78069
:100C68000D89828A83E493A3F608DFF9ECFAA9F0E8
:100C7800EDFB2289828A83ECFAE0A3C8C582C8CC3E
:100C8800C583CCF0A3C8C582C8CCC583CCDFEADE57
:100C9800E880DB89828A83E493A3F208DFF980CCB9
:100CA80088F0EF60010E4E60C388F0ED2402B404B2
:100CB8000050B9F582EB2402B4040050AF23234559
:060CC8008223900C28734A
:00000001FF
