:0300000002006695
:0C006600787FE4F6D8FD758163020AC6BD
:10055D000000C0C1C1810140C30103C00280C2417E
:10056D00C60106C00780C7410500C5C1C48104404E
:10057D00CC010CC00D80CD410F00CFC1CE810E40FE
:10058D000A00CAC1CB810B40C90109C00880C8410E
:10059D00D80118C01980D9411B00DBC1DA811A407E
:1005AD001E00DEC1DF811F40DD011DC01C80DC414E
:1005BD001400D4C1D5811540D70117C01680D6417E
:1005CD00D20112C01380D3411100D1C1D08110408E
:1005DD00F00130C03180F1413300F3C1F28132407E
:1005ED003600F6C1F7813740F50135C03480F4414E
:1005FD003C00FCC1FD813D40FF013FC03E80FE41FE
:10060D00FA013AC03B80FB413900F9C1F88138400D
:10061D002800E8C1E9812940EB012BC02A80EA417D
:10062D00EE012EC02F80EF412D00EDC1EC812C404D
:10063D00E40124C02580E5412700E7C1E68126407D
:10064D002200E2C1E3812340E10121C02080E0418D
:10065D00A00160C06180A1416300A3C1A28162407D
:10066D006600A6C1A7816740A50165C06480A4414D
:10067D006C00ACC1AD816D40AF016FC06E80AE41FD
:10068D00AA016AC06B80AB416900A9C1A88168400D
:10069D007800B8C1B9817940BB017BC07A80BA417D
:1006AD00BE017EC07F80BF417D00BDC1BC817C404D
:1006BD00B40174C07580B5417700B7C1B68176407D
:1006CD007200B2C1B3817340B10171C07080B0418D
:1006DD00500090C191815140930153C0528092417D
:1006ED00960156C057809741550095C1948154404D
:1006FD009C015CC05D809D415F009FC19E815E40FD
:10070D005A009AC19B815B40990159C0588098410C
:10071D00880148C0498089414B008BC18A814A407C
:10072D004E008EC18F814F408D014DC04C808C414C
:10073D00440084C185814540870147C0468086417C
:10074D00820142C043808341410081C1808140408C
:100AC600120003C200C201C208C209C202C203C2A6
:100AD6000AC20BC204C205C20CC20D120DB9120C19
:100AE600E2C294C290D2AFE4F5EC301905C21912F5
:100AF600075D7FE81211B7301A0D1210A7301C2DB2
:100B0600C21C1200768026302007C220120EC0803A
:100B16001C302107C221120F228012302207C22266
:100B2600120F848008302305C223120FE63018B74F
:100B3600C218E4F5ECE5476401702A301D148539C6
:100B46002CE541F52DE540F541754000E541F52ED2
:100B56008007E4F52CF52DF52EC204120DB9E4F547
:100B6600C8F551807CE54764027025301D1485392F
:100B76002FE541F530E540F541754000E541F53199
:100B86008007E4F52FF530F531C205120DB9805115
:100B9600E54764037022301D14853932E541F5338B
:100BA600E540F541754000E541F5348007E4F5324E
:100BB600F533F534C20C8026E54764047023301DF6
:100BC60014853935E541F536E540F541754000E5D2
:100BD60041F5378007E4F535F536F537C20D120CC9
:060BE600E2C21D020AED4F
:04001E0075B2832212
:1011480075F1FD75A41075D4CE75D5FF75E10175DF
:10115800E240D294D290C297C293C296C292C295EC
:03116800C291220F
:10002E00C28FD28EC28DC28CC28BC28AC289C28846
:10003E00758920758E48758D9675C80475CA3F757D
:10004E00CBB075CC3F75CDB0759104759297759305
:08005E0040759497759540224E
:040026007598102297
:0911CD0075B9F1E4F596F59722DD
:0F11BE0053D9BFE4F5D975EBEE43D940F5EC22D8
:10118500E4FFFE75FF800FBF00010EBE01F8BF5ED4
:04119500F575EF02FB
:011199002233
:10119A00C2AFC2AED2ADD2ACC2ABC2AAC2A9C2A8B9
:0411AA0075E6802244
:100E4800E4F522F554F553F552F551F558F557F5F3
:100E580056F555F53AF53BF540F541C21CC21AC2A4
:100E680018C224C21DC21BF539F547C21F90001BCA
:100E7800F0A3F0900036F0A3F0900038F0A3F090C3
:100E8800003AF0A3F0F52AF53CF53DF54AC220C238
:100E980021C222C223F52BF538C219F52DF52EF5FE
:100EA8002CF530F531F52FF533F534F532F536F507
:080EB80037F535C21EF5492291
:1000030012001E1211BE12002E12002612114812E7
:0B00130011CD121185120E4802119A47
:0911AE007F281211B7D2967F28A8
:0711B700EF60031F80FA2224
:100DB900E52030E704D2978002C2971211AEC2969D
:100DC900E52030E604D2978002C2971211AEC2968E
:100DD900E52030E504D2978002C2971211AEC2967F
:100DE900E52030E404D2978002C2971211AEC29670
:100DF900E52030E304D2978002C2971211AEC29661
:100E0900E52030E204D2978002C2971211AEC29651
:100E1900E52030E104D2978002C2971211AEC29642
:100E2900E52030E004D2978002C2971211AEC29633
:0F0E39007F281211B7D2957F281211B7C29522C8
:100CE200E52130E704D2938002C2937F281211B724
:100CF200D2927F281211B7C292E52130E604D29334
:100D02008002C2937F281211B7D2927F281211B7A4
:100D1200C292E52130E504D2938002C2937F281269
:100D220011B7D2927F281211B7C292E52130E404A2
:100D3200D2938002C2937F281211B7D2927F2812D7
:100D420011B7C292E52130E304D2938002C2937FAD
:100D5200281211B7D2927F281211B7C292E5213020
:100D6200E204D2938002C2937F281211B7D2927FFB
:100D7200281211B7C292E52130E104D2938002C257
:100D8200937F281211B7D2927F281211B7C292E52F
:100D92002130E004D2938002C2937F281211B7D28D
:100DA200927F281211B7C2927F281211B7D2917F77
:070DB200281211B7C29122C3
:030023000209418E
:10094100C0E0C0F0C083C082C0D075D000C000C07C
:1009510007209803020A19C298859959E52B700856
:10096100E559B42403752B01E52BB40800400302BB
:1009710009F690097AF8282873020AB70209920247
:1009810009980209AC0209B40209CE0209E8020978
:10099100EE752B02020AB7E559B4100D755E5B7551
:1009A1005FBF752B03C219804C8044752B04855998
:1009B100288042E55970028029E559D39419500BDA
:1009C100754200855946752B05802A8022740225BF
:1009D10042F582E43400F583E559F00542E542B57C
:1009E1004613752B06800E752B07020AB7D21975AF
:1009F1002B00020AB7E55F6259855E5F755E00757F
:100A0100F002E559A4245DF582E5F03405F583E4AF
:100A110093625E740193625F209903020AB7C299DF
:100A2100E53824FD602414602C14603B14605414D8
:100A3100605924056003020AB7755910759910753C
:100A410060997561FE7538038049AF298F598F9977
:100A5100753804803EAF278F598F99E548601F751F
:100A61003805754500802C741D2545F582E4340058
:100A7100F583E0F559F5990545E545B5481575380E
:100A8100068010856199753807802B8560997538C6
:100A9100088023E561625985606175600075F00227
:100AA100E559A4245DF582E5F03405F583E493620C
:100AB100607401936261D007D000D0D0D082D0831E
:050AC100D0F0D0E0328E
:10075D00E52824FE607B14700302083E147003022A
:10076D0009042427700302091D24DC6003020940DB
:10077D00E4F522900002E0B4FF02D210900003E0F5
:10078D00B4FF02D211900004E0B4FF02D212900027
:10079D0005E0B4FF02D21312034B75290175480C05
:1007AD00AF487E00781D7C007D017B007A00792C9E
:1007BD00120CBC753802854827759923E4F52DF583
:1007CD002EF52CF530F531F52FF533F534F5328066
:1007DD0059900002E0F551A3E0F552A3E0F553A3C3
:1007ED00E0F55475290275480CAF487E00781D7CE4
:1007FD00007D017B007A00792C120CBC75380285C6
:10080D004827759923E5517006F52DF52EF52CE544
:10081D00527006F530F531F52FE5537006F533F5C9
:10082D0034F532E5546003020940F536F537F535F8
:10083D0022900002E0B4FF1B7555FFE4F551D20084
:10084D00301A15E547B40110C204C21AE4F596F545
:10085D00978005E4F555C200900003E0B4FF1B75C9
:10086D0056FFE4F552D201301A15E547B40210C215
:10087D0005C21AE4F596F5978005E4F556C2019088
:10088D000004E0B4FF1B7557FFE4F553D208301A8E
:10089D0015E547B40310C20CC21AE4F596F597801E
:1008AD0005E4F557C208900005E0B4FF1B7558FF2D
:1008BD00E4F554D209301A15E547B40410C20DC23F
:1008CD001AE4F596F5978005E4F558C209752903E4
:1008DD0075480490001DE555F0A3E556F0A3E557C6
:1008ED00F0A3E558F0753802854827759923E4F58E
:1008FD00EC120DB9020CE275290475480490001D27
:10090D00E555F0A3E556F0A3E557F0A3E55880199A
:10091D007529DD754804E53CFF90001DEFF0A3E55A
:10092D003DF0A3E52AF0A3E54AF075380285482786
:04093D007599232263
:03002B000210FAC6
:1010FA00C0E0C0D0C2CF053DE53D7002053CE52AFF
:10110A007035752A63E54AC3944F4005754A0080D5
:10111A0002054AE54AB40104D220801DE54AB41505
:10112A0004D2218014E54AB42904D222800BE54A6C
:0E113A00B43D06D2238002152AD0D0D0E03278
:0300730002116B0C
:10116B00C0E0C0D053917F0549E549D394034005B6
:0A117B00754900D21CD0D0D0E0323C
:1010A70030870E90001CE004F0700690001BE004EF
:1010B700F030860E900037E004F07006900036E0BE
:1010C70004F030830E900039E004F0700690003889
:1010D700E004F030820E90003BE004F070069000D0
:1010E7003AE004F0900001E004F07006900000E0A0
:0310F70004F022E0
:100EC000E551B40107753901C2028014E551B4023D
:100ED00007753902D2028008E4F52DF52EF52C2293
:100EE000754701D204C205C20CC20DE4F53AF53BC8
:100EF000F596F597120DB9120CE2D21AC218D22447
:100F0000C21DE4F540F54190001BF0A3F0900000F5
:100F1000F0A3F0C21BF54BF54CF53EC21CD225C226
:020F20001F228E
:100F2200E552B40107753901C2038014E552B402D7
:100F320007753902D2038008E4F530F531F52F2226
:100F4200754702C204D205C20CC20DE4F53AF53B64
:100F5200F596F597120DB9120CE2D21AC218D224E4
:100F6200C21DE4F540F541900036F0A3F090000078
:100F7200F0A3F0C21BF54BF54CF53EC21CD225C2C4
:020F82001F222C
:100F8400E553B40107753901C20A8014E553B4026C
:100F940007753902D20A8008E4F533F534F53222B4
:100FA400754703C204C205D20CC20DE4F53AF53B01
:100FB400F596F597120DB9120CE2D21AC218D22482
:100FC400C21DE4F540F541900038F0A3F090000014
:100FD400F0A3F0C21BF54BF54CF53EC21CD225C262
:020FE4001F22CA
:100FE600E554B40107753901C20B8014E554B40207
:100FF60007753902D20B8008E4F536F537F5352248
:10100600754704C204C205C20CD20DE4F53AF53B9D
:10101600F596F597120DB9120CE2D21AC218D2241F
:10102600C21DE4F540F54190003AF0A3F0900000AF
:10103600F0A3F0C21BF54BF54CF53EC21CD225C2FF
:021046001F2267
:1000760030251BC225E4900000F0A3F090001BF091
:10008600A3F0900036F0A3F09000380201E9E547AE
:1000960064017053900000E0FAA3E0FBAE02780220
:1000A600CEC313CE13D8F9FDAC06D39400EC94005E
:1000B6004028EB9DFFEA9CFE90001BE0FAA3E0FBC4
:1000C600D39FEA9E4005D21F020215C3EB9DEA9C10
:1000D6004003020215C21F020215E4900000F0A3BD
:1000E600F090001B0201EFE5476402705390000098
:1000F600E0FAA3E0FBAE027802CEC313CE13D8F922
:10010600FDAC06D39400EC94004028EB9DFFEA9CDE
:10011600FE900036E0FAA3E0FBD39FEA9E4005D2AC
:100126001F020215C3EB9DEA9C4003020215C21F83
:10013600020215E4900000F0A3F09000360201EFF1
:10014600E54764037052900000E0FAA3E0FBAE02BC
:100156007802CEC313CE13D8F9FDAC06D39400ECC7
:1001660094004028EB9DFFEA9CFE900038E0FAA33D
:10017600E0FBD39FEA9E4005D21F020215C3EB9D0A
:10018600EA9C4003020215C21F020215E490000019
:10019600F0A3F09000388051E5476404704F90005A
:1001A60000E0FAA3E0FBAE027802CEC313CE13D86A
:1001B600F9FDAC06D39400EC94004023EB9DFFEAD6
:1001C6009CFE90003AE0FAA3E0FBD39FEA9E40042F
:1001D600D21F803BC3EB9DEA9C5034C21F8030E4A3
:1001E600900000F0A3F090003AF0A3F022E4900013
:1001F60000F0A3F090001BF0A3F0900036F0A3F0FF
:10020600900038F0A3F090003AF0A3F00202EDE47B
:10021600900000F0A3F090001BF0A3F0900036F0E1
:10022600A3F0900038F0A3F090003AF0A3F0201B62
:100236005D30244A301F2EC3E53B9480E53A940096
:10024600500AE4F540F541D21D0202EDAE3AE53B17
:100256007806CEC313CE13D8F9F54C8E4B753E01F6
:10026600D21B02030FC3E53B94C0E53A94FF50034B
:100276000203267540037541FFD21DC22422D3E531
:100286003B943FE53A940040030203118059202431
:100296005D201F41AE3AE53B7806CEC313CE13D898
:1002A600F924FFFFEE34FFFEEF254CF54CEE354BFF
:1002B600F54B053EE53EC394204016AE4BE54C7823
:1002C60005CEC313CE13D8F9F5418E40D21DC21BFD
:1002D60022D224804BC3E53B9480E53A9400500C2F
:1002E600E4F540F541D21DC21AD21822801D301FF6
:1002F60024AE3AE53B7806CEC313CE13D8F9254C87
:10030600F54CEE354BF54B053EC22474C0253BF546
:100316003B74FF8012C3E53B94C0E53A94FF501846
:100326007440253BF53BE4353AF53AF54475430010
:10033600E53BF596854497227540037541FFD21D2E
:04034600C224C21BF0
:01034A002290
:10034B00E4F52DF52EF52CF530F531F52FF533F5CC
:10035B0034F532F536F537F535F5EC30106F755160
:10036B0001120EC01210A7301C08C21C120076E43A
:10037B00F5EC3018EF301D558540628541637551A2
:10038B0002120EC01210A7301C08C21C120076E419
:10039B00F5EC3018EF301D351210488F3FE53FB4A8
:1003AB000114752C01E563F52DE562F563756200AB
:1003BB00E563F52E8017E53FB40212752C02E52696
:1003CB00F52DE525F526752500E526F52EE4F5EC4E
:1003DB0030116F755201120F221210A7301C08C278
:1003EB001C120076E4F5EC3018EF301D5585406299
:1003FB00854163755202120F221210A7301C08C2DE
:10040B001C120076E4F5EC3018EF301D3512104855
:10041B008F3FE53FB40114752F01E563F530E562BD
:10042B00F563756200E563F5318017E53FB40212A1
:10043B00752F02E526F530E525F526752500E52611
:10044B00F531E4F5EC30126F755301120F84121075
:10045B00A7301C08C21C120076E4F5EC3018EF3004
:10046B001D55854062854163755302120F8412102E
:10047B00A7301C08C21C120076E4F5EC3018EF30E4
:10048B001D351210488F3FE53FB40114753201E55D
:10049B0063F533E562F563756200E563F534801748
:1004AB00E53FB40212753202E526F533E525F52654
:1004BB00752500E526F534E4F5EC30136F75540122
:1004CB00120FE61210A7301C08C21C120076E4F5BE
:1004DB00EC3018EF301D5585406285416375540231
:1004EB00120FE61210A7301C08C21C120076E4F59E
:1004FB00EC3018EF301D351210488F3FE53FB4013B
:10050B0014753501E563F536E562F563756200E553
:10051B0063F5378017E53FB40212753502E526F512
:10052B0036E525F526752500E526F537C204C20507
:10053B00C20CC20D120DB9120CE2E4F554F553F5D1
:10054B0052F551F54AC21DC218C223C222C221C2A2
:02055B0020225C
:06104800854025854126CC
:10104E00D3E5639400E5629402400DE42563F54E0A
:10105E00E56234FEF54D800CC3E49563F54E7402E3
:10106E009562F54DD3E5269400E5259402400DE4F6
:10107E002526F550E52534FEF54F800CC3E4952664
:10108E00F55074029525F54FD3E54E9550E54D95E7
:09109E004F40037F02227F012272
:011DFF00F1F2
:100BEC00E709F608DFFA8046E709F208DFFA803EEB
:100BFC0088828C83E709F0A3DFFA8032E309F608D8
:100C0C00DFFA8078E309F208DFFA807088828C833F
:100C1C00E309F0A3DFFA806489828A83E0A3F608F3
:100C2C00DFFA805889828A83E0A3F208DFFA804CCD
:100C3C0080D280FA80C680D4806980F280338010A4
:100C4C0080A680EA809A80A880DA80E280CA80330D
:100C5C0089828A83ECFAE493A3C8C582C8CCC58385
:100C6C00CCF0A3C8C582C8CCC583CCDFE9DEE78055
:100C7C000D89828A83E493A3F608DFF9ECFAA9F0D4
:100C8C00EDFB2289828A83ECFAE0A3C8C582C8CC2A
:100C9C00C583CCF0A3C8C582C8CCC583CCDFEADE43
:100CAC00E880DB89828A83E493A3F208DFF980CCA5
:100CBC0088F0EF60010E4E60C388F0ED2402B4049E
:100CCC000050B9F582EB2402B4040050AF23234545
:060CDC008223900C3C7322
:00000001FF
