:03000000020E3AB3
:0C0E3A00787FE4F6D8FD758164020E811B
:10055D000000C0C1C1810140C30103C00280C2417E
:10056D00C60106C00780C7410500C5C1C48104404E
:10057D00CC010CC00D80CD410F00CFC1CE810E40FE
:10058D000A00CAC1CB810B40C90109C00880C8410E
:10059D00D80118C01980D9411B00DBC1DA811A407E
:1005AD001E00DEC1DF811F40DD011DC01C80DC414E
:1005BD001400D4C1D5811540D70117C01680D6417E
:1005CD00D20112C01380D3411100D1C1D08110408E
:1005DD00F00130C03180F1413300F3C1F28132407E
:1005ED003600F6C1F7813740F50135C03480F4414E
:1005FD003C00FCC1FD813D40FF013FC03E80FE41FE
:10060D00FA013AC03B80FB413900F9C1F88138400D
:10061D002800E8C1E9812940EB012BC02A80EA417D
:10062D00EE012EC02F80EF412D00EDC1EC812C404D
:10063D00E40124C02580E5412700E7C1E68126407D
:10064D002200E2C1E3812340E10121C02080E0418D
:10065D00A00160C06180A1416300A3C1A28162407D
:10066D006600A6C1A7816740A50165C06480A4414D
:10067D006C00ACC1AD816D40AF016FC06E80AE41FD
:10068D00AA016AC06B80AB416900A9C1A88168400D
:10069D007800B8C1B9817940BB017BC07A80BA417D
:1006AD00BE017EC07F80BF417D00BDC1BC817C404D
:1006BD00B40174C07580B5417700B7C1B68176407D
:1006CD007200B2C1B3817340B10171C07080B0418D
:1006DD00500090C191815140930153C0528092417D
:1006ED00960156C057809741550095C1948154404D
:1006FD009C015CC05D809D415F009FC19E815E40FD
:10070D005A009AC19B815B40990159C0588098410C
:10071D00880148C0498089414B008BC18A814A407C
:10072D004E008EC18F814F408D014DC04C808C414C
:10073D00440084C185814540870147C0468086417C
:10074D00820142C043808341410081C1808140408C
:100AAA00120003C200C201C208C209C202C203C2C2
:100ABA000AC20BC204C205C20CC20D120DAB120C43
:100ACA00D4C294C290D2AFC228E4F5EC302105C258
:100ADA002112075D12002E30220D12112530242D0D
:100AEA00C2241200768026301807C218120F3E80E0
:100AFA001C301907C219120FA08012301A07C21A25
:100B0A001210028008301B05C21B1210643020B973
:100B1A00C220E4F5ECE54864017029302514853AD1
:100B2A002DE542F52EE541F542754100E542F52FE6
:100B3A008007E4F52DF52EF52FC204120DABE4F56E
:100B4A0052020BD6E54864027028302514853A30E3
:100B5A00E542F531E541F542754100E542F532805D
:100B6A0007E4F530F531F532C205120DABE4F55361
:100B7A00805AE54864037028302514853A33E542E3
:100B8A00F534E541F542754100E542F5358007E463
:100B9A00F533F534F535C20C120CD4E4F554802C37
:100BAA00E54864047026302514853A36E542F5375F
:100BBA00E541F542754100E542F5388007E4F5362E
:100BCA00F537F538C20D120CD4E4F5551211FFC2EF
:040BDA0025020AD313
:04001E0075B2832212
:1011DC0075F1FD75A41075D4CE75D5FF75E101754B
:1011EC00E240D294D290C297C293C296C292C29558
:0311FC00C291227B
:10117800C28FD28EC28DC28CC28BC28AC289C288EB
:10118800758920758E48758D96E4F5C875CA3F75C2
:10119800CBB075CC3F75CDB07591047592977593AA
:0811A8004075949775954022F3
:040026007598102297
:0900670075B9F1E4F596F5972254
:0F12750053D9BFE4F5D975EBEE43D940F5EC2220
:10123C00E4FFFE75FF800FBF00010EBE01F8BF5E1C
:04124C00F575EF0243
:01125000227B
:10125100C2AFC2AED2ADD2ACC2ABC2AAC2A9C2A801
:0412610075E680228C
:100EC600E4F522F555F554F553F552F559F558F56F
:100ED60057F556F53BF53CF541F542C224C222C210
:100EE60020C229C225C223F53AF548C22790001B25
:100EF600F0A3F0900036F0A3F0900038F0A3F09045
:100F0600003AF0A3F0F52BF53DF53EF54BC218C2BD
:100F160019C21AC21BF52CF539C221F52EF52FF58B
:100F26002DF531F532F530F534F535F533F537F580
:080F360038F536C226F54A2207
:1000030012001E1212751211781200261211DC1240
:0B001300006712123C120EC6021251D0
:091265007F2812126ED2967F2838
:07126E00EF60031F80FA226C
:100DAB00E52030E704D2978002C297121265C296F3
:100DBB00E52030E604D2978002C297121265C296E4
:100DCB00E52030E504D2978002C297121265C296D5
:100DDB00E52030E404D2978002C297121265C296C6
:100DEB00E52030E304D2978002C297121265C296B7
:100DFB00E52030E204D2978002C297121265C296A8
:100E0B00E52030E104D2978002C297121265C29698
:100E1B00E52030E004D2978002C297121265C29689
:0F0E2B007F2812126ED2957F2812126EC2952266
:100CD400E52130E704D2938002C2937F2812126E7A
:100CE400D2927F2812126EC292E52130E604D2938A
:100CF4008002C2937F2812126ED2927F2812126E43
:100D0400C292E52130E504D2938002C2937F281277
:100D1400126ED2927F2812126EC292E52130E40440
:100D2400D2938002C2937F2812126ED2927F28122D
:100D3400126EC292E52130E304D2938002C2937F03
:100D44002812126ED2927F2812126EC292E52130BE
:100D5400E204D2938002C2937F2812126ED2927F51
:100D64002812126EC292E52130E104D2938002C2AD
:100D7400937F2812126ED2927F2812126EC292E5CD
:100D84002130E004D2938002C2937F2812126ED2E3
:100D9400927F2812126EC2927F2812126ED2917F15
:070DA4002812126EC2912219
:03002300020925AA
:10092500C0E0C0F0C083C082C0D075D000C000C098
:10093500072098030209FDC29885995AE52C70088D
:10094500E55AB42403752C01E52CB40800400302D4
:1009550009DA90095EF8282873020A9B02097602D3
:10096500097C0209900209980209B20209CC020920
:10097500D2752C02020A9BE55AB4100D755F5B75A2
:1009850060BF752C03C221804C8044752C04855AA8
:10099500298042E55A70028029E55AD39419500BF3
:1009A500754300855A47752C05802A8022740225D7
:1009B50043F582E43400F583E55AF00543E543B594
:1009C5004713752C06800E752C07020A9BD22175DC
:1009D5002C00020A9BE560625A855F60755F0075B1
:1009E500F002E55AA4245DF582E5F03405F583E4CB
:1009F50093625F7401936260209903020A9BC29916
:100A0500E53924FD602414602C14603B14605414F3
:100A1500605924056003020A9B755A107599107573
:100A250061997562FE7539038049AF2A8F5A8F998E
:100A3500753904803EAF288F5A8F99E549601F7537
:100A45003905754600802C741D2546F582E4340071
:100A5500F583E0F55AF5990546E546B54915753925
:100A6500068010856299753907802B8561997539DE
:100A7500088023E562625A85616275610075F0023E
:100A8500E55AA4245DF582E5F03405F583E4936227
:100A9500617401936262D007D000D0D0D082D08338
:050AA500D0F0D0E032AA
:10075D00E52924FE70030207E91470030208201432
:10076D0070030208E62427700302090324DC6003EA
:10077D00020924E4F522900002E0B4FF02D21090A9
:10078D000003E0B4FF02D211900004E0B4FF02D2E6
:10079D0012900005E0B4FF02D21312034B752A012B
:1007AD0075490CAF497E00781D7C007D017B007A78
:1007BD0000792D120CAE753902854928759923756E
:1007CD002E01752F01752D01E4F531F532F530F55A
:1007DD0034F535F533F537F538F5362275C804E4BB
:1007ED00F53DF53EF52EF52FF52DF531F532F530BC
:1007FD00F534F535F533F537F538F536900002E07B
:10080D00F552A3E0F553A3E0F554A3E0F555D22836
:10081D000211FF900002E0B4FF1B7556FFE4F55284
:10082D00D200302215E548B40110C204C222E4F50D
:10083D0096F5978005E4F556C200900003E0B4FFED
:10084D001B7557FFE4F553D201302215E548B4026C
:10085D0010C205C222E4F596F5978005E4F557C25E
:10086D0001900004E0B4FF1B7558FFE4F554D20865
:10087D00302215E548B40310C20CC222E4F596F5FA
:10088D00978005E4F558C208900005E0B4FF1B758C
:10089D0059FFE4F555D209302215E548B40410C2CC
:1008AD000DC222E4F596F5978005E4F559C2097558
:1008BD002A0375490490001DE556F0A3E557F0A3F2
:1008CD00E558F0A3E559F075390285492875992346
:1008DD00E4F5EC120DAB020CD4752A0475490490A5
:1008ED00001DE556F0A3E557F0A3E558F0A3E55933
:1008FD00F0753902801B754904752ADDE53DFF90C1
:10090D00001DEFF0E53EA3F0A37401F0A304F0F594
:08091D00398549287599232250
:10002E00302835E5527031E553702DE5547029E5D1
:10003E00557025C228752A0275490C781D7C007DE5
:10004E0001FB7A00792DFE7F0C120CAE75390285FC
:09005E004928759923E4F5C82234
:03002B000211B00F
:1011B000C0E0C0D0C2CF053EE53E7002053DE52B44
:1011C0007013752B63E54BC3944F4005754B00803E
:0C11D00006054B8002152BD0D0D0E03279
:0300730002122254
:10122200C0E0C0D053917F054AE54AD394034005FC
:0A123200754A00D224D0D0D0E0327B
:031284000108005E
:1011250030870E90001CE004F0700690001BE00470
:10113500F030860E900037E004F07006900036E03F
:1011450004F030830E900039E004F070069000380A
:10115500E004F030820E90003BE004F07006900051
:101165003AE004F0900001E004F07006900000E021
:0311750004F02261
:100F3E00E552B40107753A01C2028014E552B402BB
:100F4E0007753A02D2028008E4F52EF52FF52D2210
:100F5E00754801D204C205C20CC20DE4F53BF53C46
:100F6E00F596F597120DAB120CD4D222C220D229CF
:100F7E00C225E4F541F54290001BF0A3F09000006D
:100F8E00F0A3F0C223F54CF54DF53FC224D22AC290
:020F9E00272208
:100FA000E553B40107753A01C2038014E553B40256
:100FB00007753A02D2038008E4F531F532F53022A4
:100FC000754802C204D205C20CC20DE4F53BF53CE3
:100FD000F596F597120DAB120CD4D222C220D2296D
:100FE000C225E4F541F542900036F0A3F0900000F0
:100FF000F0A3F0C223F54CF54DF53FC224D22AC22E
:021000002722A5
:10100200E554B40107753A01C20A8014E554B402EA
:1010120007753A02D20A8008E4F534F535F5332231
:10102200754803C204C205D20CC20DE4F53BF53C7F
:10103200F596F597120DAB120CD4D222C220D2290A
:10104200C225E4F541F542900038F0A3F09000008B
:10105200F0A3F0C223F54CF54DF53FC224D22AC2CB
:02106200272243
:10106400E555B40107753A01C20B8014E555B40285
:1010740007753A02D20B8008E4F537F538F53622C5
:10108400754804C204C205C20CD20DE4F53BF53C1C
:10109400F596F597120DAB120CD4D222C220D229A8
:1010A400C225E4F541F54290003AF0A3F090000027
:1010B400F0A3F0C223F54CF54DF53FC224D22AC269
:0210C4002722E1
:10007600302A1BC22AE4900000F0A3F090001BF087
:10008600A3F0900036F0A3F09000380201E9E548AD
:1000960064017053900000E0FAA3E0FBAE02780220
:1000A600CEC313CE13D8F9FDAC06D39400EC94005E
:1000B6004028EB9DFFEA9CFE90001BE0FAA3E0FBC4
:1000C600D39FEA9E4005D227020215C3EB9DEA9C08
:1000D6004003020215C227020215E4900000F0A3B5
:1000E600F090001B0201EFE5486402705390000097
:1000F600E0FAA3E0FBAE027802CEC313CE13D8F922
:10010600FDAC06D39400EC94004028EB9DFFEA9CDE
:10011600FE900036E0FAA3E0FBD39FEA9E4005D2AC
:1001260027020215C3EB9DEA9C4003020215C22773
:10013600020215E4900000F0A3F09000360201EFF1
:10014600E54864037052900000E0FAA3E0FBAE02BB
:100156007802CEC313CE13D8F9FDAC06D39400ECC7
:1001660094004028EB9DFFEA9CFE900038E0FAA33D
:10017600E0FBD39FEA9E4005D227020215C3EB9D02
:10018600EA9C4003020215C227020215E490000011
:10019600F0A3F09000388051E5486404704F900059
:1001A60000E0FAA3E0FBAE027802CEC313CE13D86A
:1001B600F9FDAC06D39400EC94004023EB9DFFEAD6
:1001C6009CFE90003AE0FAA3E0FBD39FEA9E40042F
:1001D600D227803BC3EB9DEA9C5034C2278030E493
:1001E600900000F0A3F090003AF0A3F022E4900013
:1001F60000F0A3F090001BF0A3F0900036F0A3F0FF
:10020600900038F0A3F090003AF0A3F00202EDE47B
:10021600900000F0A3F090001BF0A3F0900036F0E1
:10022600A3F0900038F0A3F090003AF0A3F020235A
:100236005D30294A30272EC3E53C9480E53B940087
:10024600500AE4F541F542D2250202EDAE3BE53C0B
:100256007806CEC313CE13D8F9F54D8E4C753F01F3
:10026600D22302030FC3E53C94C0E53B94FF500341
:100276000203267541037542FFD225C22922D3E522
:100286003C943FE53B94004003020311805920292A
:100296005D202741AE3BE53C7806CEC313CE13D88E
:1002A600F924FFFFEE34FFFEEF254DF54DEE354CFC
:1002B600F54C053FE53FC394204016AE4CE54D781E
:1002C60005CEC313CE13D8F9F5428E41D225C223EB
:1002D60022D229804BC3E53C9480E53B9400500C28
:1002E600E4F541F542D225C222D22022801D3027D4
:1002F60024AE3BE53C7806CEC313CE13D8F9254D84
:10030600F54DEE354CF54C053FC22974C0253CF53C
:100316003C74FF8012C3E53C94C0E53B94FF501843
:100326007440253CF53CE4353BF53BF5457544000A
:10033600E53CF596854597227541037542FFD22522
:04034600C229C223E3
:01034A002290
:10034B00E4F52EF52FF52DF531F532F530F534F5C5
:10035B0035F533F537F538F536F5EC30106F75525A
:10036B0001120F3E121125302408C224120076E42C
:10037B00F5EC3020EF30255585416385426475528D
:10038B0002120F3E121125302408C224120076E40B
:10039B00F5EC3020EF3025351210C68F40E540B418
:1003AB000114752D01E564F52EE563F564756300A5
:1003BB00E564F52F8017E540B40212752D02E52791
:1003CB00F52EE526F527752600E527F52FE4F5EC48
:1003DB0030116F755301120FA0121125302408C272
:1003EB0024120076E4F5EC3020EF3025558541637F
:1003FB00854264755302120FA0121125302408C2D6
:10040B0024120076E4F5EC3020EF3025351210C6BF
:10041B008F40E540B40114753001E564F531E563B7
:10042B00F564756300E564F5328017E540B402129C
:10043B00753002E527F531E526F527752600E5270A
:10044B00F532E4F5EC30126F7554011210021211F3
:10045B0025302408C224120076E4F5EC3020EF306E
:10046B0025558541638542647554021210021211A1
:10047B0025302408C224120076E4F5EC3020EF304E
:10048B0025351210C68F40E540B40114753301E5D4
:10049B0064F534E563F564756300E564F535801741
:1004AB00E540B40212753302E527F534E526F5274E
:1004BB00752600E527F535E4F5EC30136F7555011E
:1004CB00121064121125302408C224120076E4F5B0
:1004DB00EC3020EF3025558541638542647555021C
:1004EB00121064121125302408C224120076E4F590
:1004FB00EC3020EF3025351210C68F40E540B401AB
:10050B0014753601E564F537E563F564756300E54D
:10051B0064F5388017E540B40212753602E527F50D
:10052B0037E526F527752600E527F538C204C20501
:10053B00C20CC20D120DAB120CD4E4F555F554F5EB
:10054B0053F552F54BC225C220C21BC21AC219C2A7
:02055B00182264
:0610C6008541268542274A
:1010CC00D3E5649400E5639402400DE42564F54F88
:1010DC00E56334FEF54E800CC3E49564F54F740261
:1010EC009563F54ED3E5279400E5269402400DE474
:1010FC002527F551E52634FEF550800CC3E49527E1
:10110C00F55174029526F550D3E54F9551E54E9562
:09111C005040037F02227F0122F2
:1011FF00E4F50874522508F8E66010AF08A80774E4
:10120F0001088002C333D8FCF523220508E508B492
:03121F0004E122C5
:011DFF00F1F2
:100E4600020AAAE493A3F8E493A34003F68001F20E
:100E560008DFF48029E493A3F85407240CC8C333AD
:100E6600C4540F4420C8834004F456800146F6DF7C
:100E7600E4800B0102040810204080901284E47E76
:100E8600019360BCA3FF543F30E509541FFEE49371
:100E9600A360010ECF54C025E060A840B8E493A338
:100EA600FAE493A3F8E493A3C8C582C8CAC583CA63
:100EB600F0A3C8C582C8CAC583CADFE9DEE780BE1B
:011287000066
:100BDE00E709F608DFFA8046E709F208DFFA803EF9
:100BEE0088828C83E709F0A3DFFA8032E309F608E6
:100BFE00DFFA8078E309F208DFFA807088828C834E
:100C0E00E309F0A3DFFA806489828A83E0A3F60801
:100C1E00DFFA805889828A83E0A3F208DFFA804CDB
:100C2E0080D280FA80C680D4806980F280338010B2
:100C3E0080A680EA809A80A880DA80E280CA80331B
:100C4E0089828A83ECFAE493A3C8C582C8CCC58393
:100C5E00CCF0A3C8C582C8CCC583CCDFE9DEE78063
:100C6E000D89828A83E493A3F608DFF9ECFAA9F0E2
:100C7E00EDFB2289828A83ECFAE0A3C8C582C8CC38
:100C8E00C583CCF0A3C8C582C8CCC583CCDFEADE51
:100C9E00E880DB89828A83E493A3F208DFF980CCB3
:100CAE0088F0EF60010E4E60C388F0ED2402B404AC
:100CBE000050B9F582EB2402B4040050AF23234553
:060CCE008223900C2E733E
:00000001FF
