:0300000002006695
:0C006600787FE4F6D8FD758161020AB0D5
:10055D000000C0C1C1810140C30103C00280C2417E
:10056D00C60106C00780C7410500C5C1C48104404E
:10057D00CC010CC00D80CD410F00CFC1CE810E40FE
:10058D000A00CAC1CB810B40C90109C00880C8410E
:10059D00D80118C01980D9411B00DBC1DA811A407E
:1005AD001E00DEC1DF811F40DD011DC01C80DC414E
:1005BD001400D4C1D5811540D70117C01680D6417E
:1005CD00D20112C01380D3411100D1C1D08110408E
:1005DD00F00130C03180F1413300F3C1F28132407E
:1005ED003600F6C1F7813740F50135C03480F4414E
:1005FD003C00FCC1FD813D40FF013FC03E80FE41FE
:10060D00FA013AC03B80FB413900F9C1F88138400D
:10061D002800E8C1E9812940EB012BC02A80EA417D
:10062D00EE012EC02F80EF412D00EDC1EC812C404D
:10063D00E40124C02580E5412700E7C1E68126407D
:10064D002200E2C1E3812340E10121C02080E0418D
:10065D00A00160C06180A1416300A3C1A28162407D
:10066D006600A6C1A7816740A50165C06480A4414D
:10067D006C00ACC1AD816D40AF016FC06E80AE41FD
:10068D00AA016AC06B80AB416900A9C1A88168400D
:10069D007800B8C1B9817940BB017BC07A80BA417D
:1006AD00BE017EC07F80BF417D00BDC1BC817C404D
:1006BD00B40174C07580B5417700B7C1B68176407D
:1006CD007200B2C1B3817340B10171C07080B0418D
:1006DD00500090C191815140930153C0528092417D
:1006ED00960156C057809741550095C1948154404D
:1006FD009C015CC05D809D415F009FC19E815E40FD
:10070D005A009AC19B815B40990159C0588098410C
:10071D00880148C0498089414B008BC18A814A407C
:10072D004E008EC18F814F408D014DC04C808C414C
:10073D00440084C185814540870147C0468086417C
:10074D00820142C043808341410081C1808140408C
:100AB000120003C200C201C208C209C202C203C2BC
:100AC0000AC20BC204C205C20CC20D120D96120C52
:100AD000BFC294C290D2AFE4F5EC301905C219122E
:100AE000075D301A0D121080301C2DC21C120076CA
:100AF0008026302007C220120E99801C302107C2A8
:100B000021120EFB8012302207C222120F5D8008D4
:100B1000302305C223120FBF3018BCC218E4F5EC15
:100B2000E54564017022301D1485392CE53FF52D13
:100B3000E53EF53F753E00E53FF52E8007E4F52CD8
:100B4000F52DF52EC2048026E54564027025301D82
:100B50001485392FE53FF530E53EF53F753E00E55C
:100B60003FF5318007E4F52FF530F531C205120D60
:100B7000968051E54564037022301D14853932E5B5
:100B80003FF533E53EF53F753E00E53FF534800720
:100B9000E4F532F533F534C20C8026E54564047083
:100BA00023301D14853935E53FF536E53EF53F75B3
:100BB0003E00E53FF5378007E4F535F536F537C2F9
:090BC0000D120CBFC21D020AD780
:04001E0075B2832212
:1011190075F1FD75A41075D4CE75D5FF75E101750E
:10112900E240D294D290C297C293C296C292C2951B
:03113900C291223E
:10002E00C28FD28EC28DC28CC28BC28AC289C28846
:10003E00758920758E48758D9675C80475CA3F757D
:10004E00CBB075CC3F75CDB0759104759297759305
:08005E0040759497759540224E
:040026007598102297
:09119E0075B9F1E4F596F597220C
:0F118F0053D9BFE4F5D975EBEE43D940F5EC2207
:10115600E4FFFE75FF800FBF00010EBE01F8BF5E03
:04116600F575EF022A
:01116A002262
:10116B00C2AFC2AED2ADD2ACC2ABC2AAC2A9C2A8E8
:04117B0075E6802273
:100E2500E4F522F552F551F550F54FF556F555F522
:100E350054F553F53AF53BF53EF53FC21CC21AC2CF
:100E450018C224C21DC21BF539F545C21F90001BEF
:100E5500F0A3F0900036F0A3F0900038F0A3F090E6
:100E6500003AF0A3F0F52AF548C220C221C222C2F9
:100E750023F52BF538C219F52DF52EF52CF530F5A2
:100E850031F52FF533F534F532F536F537F535C24D
:040E95001EF54722DD
:1000030012001E12118F12002E1200261211191245
:0B001300119E121156120E2502116BF7
:09117F007F28121188D2967F2806
:07118800EF60031F80FA2253
:100D9600E52030E704D2978002C29712117FC296EF
:100DA600E52030E604D2978002C29712117FC296E0
:100DB600E52030E504D2978002C29712117FC296D1
:100DC600E52030E404D2978002C29712117FC296C2
:100DD600E52030E304D2978002C29712117FC296B3
:100DE600E52030E204D2978002C29712117FC296A4
:100DF600E52030E104D2978002C29712117FC29695
:100E0600E52030E004D2978002C29712117FC29685
:0F0E16007F28121188D2957F28121188C2952249
:100CBF00E52130E704D2938002C2937F2812118876
:100CCF00D2927F28121188C292E52130E604D29386
:100CDF008002C2937F28121188D2927F2812118826
:100CEF00C292E52130E504D2938002C2937F28128D
:100CFF001188D2927F28121188C292E52130E40424
:100D0F00D2938002C2937F28121188D2927F281229
:100D1F001188C292E52130E304D2938002C2937FFF
:100D2F0028121188D2927F28121188C292E52130A1
:100D3F00E204D2938002C2937F28121188D2927F4D
:100D4F0028121188C292E52130E104D2938002C2A9
:100D5F00937F28121188D2927F28121188C292E5B0
:100D6F002130E004D2938002C2937F28121188D2DF
:100D7F00927F28121188C2927F28121188D2917FF8
:070D8F0028121188C2912215
:0300230002091FB0
:10091F00C0E0C0F0C083C082C0D075D000C000C09E
:10092F0007209803020A03C298859957E52B700890
:10093F00E557B42403752B01E52BB40800400302DF
:10094F0009E0900958F8282873020AA102097002D9
:10095F00097602098A0209920209AC0209C6020944
:10096F00D3752B02020AA1E557B4100D755C5B75A8
:10097F005DBF752B03C21980588050752B048557A6
:10098F0028804EE55770028029E557D39419500BF4
:10099F00754000855744752B058036802E740225CF
:1009AF0040F582E43400F583E557F00540E540B5A6
:1009BF00441F752B06801AE557B55D06752B070288
:1009CF000AA18007E557B55C02D219752B00020A00
:1009DF00A1E55D6257855C5D755C0075F002E557BA
:1009EF00A4245DF582E5F03405F583E493625C742D
:1009FF000193625D209903020AA1C299E53824FD93
:100A0F00602414602C14603B146054146059240546
:100A1F006003020AA1755710759910755E99755F7D
:100A2F00FE7538038049AF298F578F997538048029
:100A3F003EAF278F578F99E546601F753805754371
:100A4F0000802C741D2543F582E43400F583E0F516
:100A5F0057F5990543E543B546157538068010855A
:100A6F005F99753807802B855E997538088023E567
:100A7F005F6257855E5F755E0075F002E557A424CF
:100A8F005DF582E5F03405F583E493625E740193BE
:100A9F00625FD007D000D0D0D082D083D0F0D0E02A
:010AAF003214
:10075D00E52824FE60741470030208371470030238
:10076D0008FD2403600302091EE4F522900002E057
:10077D00B4FF02D210900003E0B4FF02D21190003A
:10078D0004E0B4FF02D212900005E0B4FF02D213D0
:10079D0012034B75290175460CAF467E00781D7C02
:1007AD00007D017B007A00792C120C997538028539
:1007BD004627759923E4F52DF52EF52CF530F531F9
:1007CD00F52FF533F534F5328059900002E0F54FF1
:1007DD00A3E0F550A3E0F551A3E0F552752902759C
:1007ED00460CAF467E00781D7C007D017B007A00B3
:1007FD00792C120C99753802854627759923E54F8A
:10080D007006F52DF52EF52CE5507006F530F53109
:10081D00F52FE5517006F533F534F532E5526003E9
:10082D0002091EF536F537F53522900002E0B4FFCA
:10083D001B7553FFE4F54FD200301A15E545B40191
:10084D0010C204C21AE4F596F5978005E4F553C27B
:10085D0000900003E0B4FF1B7554FFE4F550D20186
:10086D00301A15E545B40210C205C21AE4F596F525
:10087D00978005E4F554C201900004E0B4FF1B75A8
:10088D0055FFE4F551D208301A15E545B40310C2F1
:10089D000CC21AE4F596F5978005E4F555C208905B
:1008AD000005E0B4FF1B7556FFE4F552D209301A6E
:1008BD0015E545B40410C20DC21AE4F596F59780FE
:1008CD0005E4F556C20975290375460490001DE52A
:1008DD0053F0A3E554F0A3E555F0A3E556F07538B4
:1008ED0002854627759923E4F5EC120D96020CBF8F
:1008FD0075290475460490001DE553F0A3E554F0E9
:10090D00A3E555F0A3E556F0753802854627759990
:02091D00232293
:03002B000210D3ED
:1010D300C0E0C0D0C2CFE52A7035752A63E548C3A6
:1010E300944F400575480080020548E548B4010463
:1010F300D220801DE548B41504D2218014E548B4FC
:101103002904D222800BE548B43D06D22380021580
:061113002AD0D0D0E0322A
:0300730002113C3B
:10113C00C0E0C0D053917F0547E547D394034005E9
:0A114C00754700D21CD0D0D0E0326D
:1010800030870E90001CE004F0700690001BE00416
:10109000F030860E900037E004F07006900036E0E5
:1010A00004F030830E900039E004F07006900038B0
:1010B000E004F030820E90003BE004F070069000F7
:1010C0003AE004F0900001E004F07006900000E0C7
:0310D00004F02207
:100E9900E54FB40107753901C2028014E54FB40268
:100EA90007753902D2028008E4F52DF52EF52C22BA
:100EB900754501D204C205C20CC20DE4F53AF53BF1
:100EC900F596F597120D96120CBFD21AC218D224B4
:100ED900C21DE4F53EF53F90001BF0A3F090000021
:100EE900F0A3F0C21BF549F54AF53CC21CD225C254
:020EF9001F22B6
:100EFB00E550B40107753901C2038014E550B40203
:100F0B0007753902D2038008E4F530F531F52F224D
:100F1B00754502C204D205C20CC20DE4F53AF53B8D
:100F2B00F596F597120D96120CBFD21AC218D22451
:100F3B00C21DE4F53EF53F900036F0A3F0900000A3
:100F4B00F0A3F0C21BF549F54AF53CC21CD225C2F1
:020F5B001F2253
:100F5D00E551B40107753901C20A8014E551B40297
:100F6D0007753902D20A8008E4F533F534F53222DB
:100F7D00754503C204C205D20CC20DE4F53AF53B2A
:100F8D00F596F597120D96120CBFD21AC218D224EF
:100F9D00C21DE4F53EF53F900038F0A3F09000003F
:100FAD00F0A3F0C21BF549F54AF53CC21CD225C28F
:020FBD001F22F1
:100FBF00E552B40107753901C20B8014E552B40232
:100FCF0007753902D20B8008E4F536F537F535226F
:100FDF00754504C204C205C20CD20DE4F53AF53BC7
:100FEF00F596F597120D96120CBFD21AC218D2248D
:100FFF00C21DE4F53EF53F90003AF0A3F0900000DB
:10100F00F0A3F0C21BF549F54AF53CC21CD225C22C
:02101F001F228E
:1000760030251BC225E4900000F0A3F090001BF091
:10008600A3F0900036F0A3F09000380201E9E545B0
:1000960064017053900000E0FAA3E0FBAE02780220
:1000A600CEC313CE13D8F9FDAC06D39400EC94005E
:1000B6004028EB9DFFEA9CFE90001BE0FAA3E0FBC4
:1000C600D39FEA9E4005D21F020215C3EB9DEA9C10
:1000D6004003020215C21F020215E4900000F0A3BD
:1000E600F090001B0201EFE545640270539000009A
:1000F600E0FAA3E0FBAE027802CEC313CE13D8F922
:10010600FDAC06D39400EC94004028EB9DFFEA9CDE
:10011600FE900036E0FAA3E0FBD39FEA9E4005D2AC
:100126001F020215C3EB9DEA9C4003020215C21F83
:10013600020215E4900000F0A3F09000360201EFF1
:10014600E54564037052900000E0FAA3E0FBAE02BE
:100156007802CEC313CE13D8F9FDAC06D39400ECC7
:1001660094004028EB9DFFEA9CFE900038E0FAA33D
:10017600E0FBD39FEA9E4005D21F020215C3EB9D0A
:10018600EA9C4003020215C21F020215E490000019
:10019600F0A3F09000388051E5456404704F90005C
:1001A60000E0FAA3E0FBAE027802CEC313CE13D86A
:1001B600F9FDAC06D39400EC94004023EB9DFFEAD6
:1001C6009CFE90003AE0FAA3E0FBD39FEA9E40042F
:1001D600D21F803BC3EB9DEA9C5034C21F8030E4A3
:1001E600900000F0A3F090003AF0A3F022E4900013
:1001F60000F0A3F090001BF0A3F0900036F0A3F0FF
:10020600900038F0A3F090003AF0A3F00202EDE47B
:10021600900000F0A3F090001BF0A3F0900036F0E1
:10022600A3F0900038F0A3F090003AF0A3F0201B62
:100236005D30244A301F2EC3E53B9480E53A940096
:10024600500AE4F53EF53FD21D0202EDAE3AE53B1B
:100256007806CEC313CE13D8F9F54A8E49753C01FC
:10026600D21B02030FC3E53B94C0E53A94FF50034B
:10027600020326753E03753FFFD21DC22422D3E535
:100286003B943FE53A940040030203118059202431
:100296005D201F41AE3AE53B7806CEC313CE13D898
:1002A600F924FFFFEE34FFFEEF254AF54AEE354905
:1002B600F549053CE53CC394204016AE49E54A782D
:1002C60005CEC313CE13D8F9F53F8E3ED21DC21B01
:1002D60022D224804BC3E53B9480E53A9400500C2F
:1002E600E4F53EF53FD21DC21AD21822801D301FFA
:1002F60024AE3AE53B7806CEC313CE13D8F9254A89
:10030600F54AEE3549F549053CC22474C0253BF54E
:100316003B74FF8012C3E53B94C0E53A94FF501846
:100326007440253BF53BE4353AF53AF54275410014
:10033600E53BF59685429722753E03753FFFD21D34
:04034600C224C21BF0
:01034A002290
:10034B00E4F52DF52EF52CF530F531F52FF533F5CC
:10035B0034F532F536F537F535F5EC30106F754F62
:10036B0001120E99121080301C08C21C120076E488
:10037B00F5EC3018EF301D55853E60853F61754FAC
:10038B0002120E99121080301C08C21C120076E467
:10039B00F5EC3018EF301D351210218F3DE53DB4D3
:1003AB000114752C01E561F52DE560F561756000B3
:1003BB00E561F52E8017E53DB40212752C02E5269A
:1003CB00F52DE525F526752500E526F52EE4F5EC4E
:1003DB0030116F755001120EFB121080301C08C2C9
:1003EB001C120076E4F5EC3018EF301D55853E609D
:1003FB00853F61755002120EFB121080301C08C233
:10040B001C120076E4F5EC3018EF301D351210217C
:10041B008F3DE53DB40114752F01E561F530E560C5
:10042B00F561756000E561F5318017E53DB40212A9
:10043B00752F02E526F530E525F526752500E52611
:10044B00F531E4F5EC30126F755101120F5D12109E
:10045B0080301C08C21C120076E4F5EC3018EF302B
:10046B001D55853E60853F61755102120F5D12105F
:10047B0080301C08C21C120076E4F5EC3018EF300B
:10048B001D351210218F3DE53DB40114753201E588
:10049B0061F533E560F561756000E561F534801752
:1004AB00E53DB40212753202E526F533E525F52656
:1004BB00752500E526F534E4F5EC30136F75520124
:1004CB00120FBF121080301C08C21C120076E4F50C
:1004DB00EC3018EF301D55853E60853F617552023B
:1004EB00120FBF121080301C08C21C120076E4F5EC
:1004FB00EC3018EF301D351210218F3DE53DB40166
:10050B0014753501E561F536E560F561756000E55B
:10051B0061F5378017E53DB40212753502E526F516
:10052B0036E525F526752500E526F537C204C20507
:10053B00C20CC20D120D96120CBFE4F552F551F51B
:10054B0050F54FF548C21DC218C223C222C221C2A8
:02055B0020225C
:06102100853E25853F26F7
:10102700D3E5619400E5609402400DE42561F54C39
:10103700E56034FEF54B800CC3E49561F54C740212
:101047009560F54BD3E5269400E5259402400DE421
:101057002526F54EE52534FEF54D800CC3E495268F
:10106700F54E74029525F54DD3E54C954EE54B9518
:091077004D40037F02227F01229B
:011DFF00F1F2
:100BC900E709F608DFFA8046E709F208DFFA803E0E
:100BD90088828C83E709F0A3DFFA8032E309F608FB
:100BE900DFFA8078E309F208DFFA807088828C8363
:100BF900E309F0A3DFFA806489828A83E0A3F60817
:100C0900DFFA805889828A83E0A3F208DFFA804CF0
:100C190080D280FA80C680D4806980F280338010C7
:100C290080A680EA809A80A880DA80E280CA803330
:100C390089828A83ECFAE493A3C8C582C8CCC583A8
:100C4900CCF0A3C8C582C8CCC583CCDFE9DEE78078
:100C59000D89828A83E493A3F608DFF9ECFAA9F0F7
:100C6900EDFB2289828A83ECFAE0A3C8C582C8CC4D
:100C7900C583CCF0A3C8C582C8CCC583CCDFEADE66
:100C8900E880DB89828A83E493A3F208DFF980CCC8
:100C990088F0EF60010E4E60C388F0ED2402B404C1
:100CA9000050B9F582EB2402B4040050AF23234568
:060CB9008223900C197368
:00000001FF
