:030000000211E109
:0C11E100787FE4F6D8FD75816C021228BE
:1008C3000000C0C1C1810140C30103C00280C24115
:1008D300C60106C00780C7410500C5C1C4810440E5
:1008E300CC010CC00D80CD410F00CFC1CE810E4095
:1008F3000A00CAC1CB810B40C90109C00880C841A5
:10090300D80118C01980D9411B00DBC1DA811A4014
:100913001E00DEC1DF811F40DD011DC01C80DC41E4
:100923001400D4C1D5811540D70117C01680D64114
:10093300D20112C01380D3411100D1C1D081104024
:10094300F00130C03180F1413300F3C1F281324014
:100953003600F6C1F7813740F50135C03480F441E4
:100963003C00FCC1FD813D40FF013FC03E80FE4194
:10097300FA013AC03B80FB413900F9C1F8813840A4
:100983002800E8C1E9812940EB012BC02A80EA4114
:10099300EE012EC02F80EF412D00EDC1EC812C40E4
:1009A300E40124C02580E5412700E7C1E681264014
:1009B3002200E2C1E3812340E10121C02080E04124
:1009C300A00160C06180A1416300A3C1A281624014
:1009D3006600A6C1A7816740A50165C06480A441E4
:1009E3006C00ACC1AD816D40AF016FC06E80AE4194
:1009F300AA016AC06B80AB416900A9C1A8816840A4
:100A03007800B8C1B9817940BB017BC07A80BA4113
:100A1300BE017EC07F80BF417D00BDC1BC817C40E3
:100A2300B40174C07580B5417700B7C1B681764013
:100A33007200B2C1B3817340B10171C07080B04123
:100A4300500090C191815140930153C05280924113
:100A5300960156C057809741550095C194815440E3
:100A63009C015CC05D809D415F009FC19E815E4093
:100A73005A009AC19B815B40990159C058809841A3
:100A8300880148C0498089414B008BC18A814A4013
:100A93004E008EC18F814F408D014DC04C808C41E3
:100AA300440084C185814540870147C04680864113
:100AB300820142C043808341410081C18081404023
:100E2E00120003C200C201C208C209C202C203C23A
:100E3E000AC20BC204C205C20CC20D120FBA1210A6
:100E4E007DC294C290D2AFC22875EC00302105C28B
:100E5E00211206C212155430220D121501302471C2
:100E6E00C224120076806A301818C21812135DAEB2
:100E7E0043E5447806C333CE33CED8F9F53C8E3BEA
:100E8E00804F301918C2191213C6AE45E5467806C2
:100E9E00C333CE33CED8F9F53C8E3B8034301A189E
:100EAE00C21A12142FAE47E5487806C333CE33CE9E
:100EBE00D8F9F53C8E3B8019301B16C21B121498C4
:100ECE00AE49E54A7806C333CE33CED8F9F53C8E1B
:100EDE003B202003020E57C22075EC00E550640142
:100EEE00702D302516853A2DAF42EFF52EE541F5E2
:100EFE0042754100AF42EFF52F8009752D00752E1A
:100F0E0000752F00C204120FBA755A00020FB1E518
:100F1E00506402702C302516853A30AF42EFF53111
:100F2E00E541F542754100AF42EFF532800975306B
:100F3E0000753100753200C205120FBA755B008064
:100F4E0062E5506403702C302516853A33AF42EFBC
:100F5E00F534E541F542754100AF42EFF5358009B4
:100F6E00753300753400753500C20C12107D755C3A
:100F7E00008030E5506404702A302516853A36AF6D
:100F8E0042EFF537E541F542754100AF42EFF538D6
:100F9E008009753600753700753800C20D12107D48
:0C0FAE00755D001215F7C225020E5722D7
:04001F0075B2832211
:1016200075F1FD75A41075D4CE75D5FF75E1017502
:10163000E240D294D290C297C293C296C292C2950F
:03164000C2912232
:10002E00C28FD28EC28DC28CC28BC28AC289C28846
:10003E00758920758E48758D9675C80075CA3F7581
:10004E00CBB075CC3F75CDB0759104759297759305
:08005E0040759497759540224E
:040026007598102297
:0A16810075B9F17596007597002207
:1016710053D9BF75D90075EBEE43D94075EC002203
:1015CD00750F0075100075FF80750F00751000C345
:1015DD00E510945EE50F64809481500A0510E510C6
:0915ED007002050F80E975EF02A0
:0115F60022D2
:10165D00C2AFC2AED2ADD2ACC2ABC2AAC2A9C2A8F1
:04166D0075E680227C
:10126D00752200755D00755C00755B00755A007523
:10127D006100756000755F00755E00753B00753C23
:10128D0000754100754200C224C222C220C229C28B
:10129D0025C223753A00755000C22790001BE4F05B
:1012AD00A3F090004FF0A3F0900051F0A3F0900048
:1012BD0053F0A3F0F52BF53DF53EF553C218C219C9
:1012CD00C21AC21BF52CF539C221F52EF52FF52DBD
:1012DD00F531F532F530F534F535F533F537F538BB
:0712ED00F536C226F552227E
:1000030012001F12167112002E1200261216201251
:0C00130016811215CD12126D12165D221E
:0B0066008F13E5136004151380F822CF
:100FBA00E52030E704D2978002C2977F28120066A4
:100FCA00D296120066C296E52030E604D2978002D5
:100FDA00C2977F28120066D296120066C296E52052
:100FEA0030E504D2978002C2977F28120066D29613
:100FFA00120066C296E52030E404D2978002C297B6
:10100A007F28120066D296120066C296E52030E367
:10101A0004D2978002C2977F28120066D2961200E5
:10102A0066C296E52030E204D2978002C2977F28F2
:10103A00120066D296120066C296E52030E104D20A
:10104A00978002C2977F28120066D296120066C263
:10105A0096E52030E004D2978002C2977F281200DA
:10106A0066D296120066C296120066D29512006681
:03107A00C29522FA
:10107D00E52130E704D2938002C2937F28120066E7
:10108D00D292120066C292E52130E604D29380021C
:10109D00C2937F28120066D292120066C292E52199
:1010AD0030E504D2938002C2937F28120066D2925B
:1010BD00120066C292E52130E404D2938002C293FD
:1010CD007F28120066D292120066C292E52130E3AB
:1010DD0004D2938002C2937F28120066D29212002E
:1010ED0066C292E52130E204D2938002C2937F283A
:1010FD00120066D292120066C292E52130E104D24E
:10110D00938002C2937F28120066D292120066C2AB
:10111D0092E52130E004D2938002C2937F28120021
:10112D0066D292120066C292120066D291120066C9
:03113D00C291223A
:03002300020AC30B
:100AC300C0E0C0F0C083C082C0D075D000C000C0F9
:100AD30006C007209803020BB2C298859962E52CE1
:100AE3007008E562B42403752C01E52C120E080C82
:100AF3008E000B11010B17020B31030B39040B5C36
:100B0300050B77060B830700000B8B020C8E752CED
:100B130002020C8EE562B4100D75675B7568BF75D4
:100B23002C03C2218062752C00020C8E805A752C16
:100B3300048562298052E5627005752C068049E5BB
:100B430062D39419500B754B0085624F752C058049
:100B530037752C00020C8E802FAF4B74022FF58259
:100B6300E43400F583E562F0054BE54BB54F1975A9
:100B73002C068014752C07020C8E752C00020C8E2B
:100B8300D221752C00020C8EE56862628567687558
:100B93006700AF6275F002EFA424C3F582E5F03479
:100BA30008F583E493FE740193FF6268EE626720A5
:100BB3009903020C8EC299E539120E080BDB020B66
:100BC300EC030BF7040C0E050C2D060C35070C3D3E
:100BD3000D0C491D00000C8E756210759910756916
:100BE30099756AFE753903807BAF2A8F628F997579
:100BF30039048070AF288F628F99E5516008753989
:100C030005754E00805E7539068059AF4E741D2FF1
:100C1300F582E43400F583E0FFF562F599054EE5CE
:100C23004E6551703F753906803A856A9975390763
:100C33008059856999753908805190001DE0FFF549
:100C430099754E018045AF4E741D2FF582E4340033
:100C5300F583E0FFF599054EE54EB5512E7539083C
:100C630080298027E56A626285696A756900AF62D7
:100C730075F002EFA424C3F582E5F03408F583E4AC
:100C830093FE740193FF626AEE6269D007D006D0C7
:0C0C930000D0D0D082D083D0F0D0E0326E
:1006C200E529120E0806DA0107600207A903087875
:1006D20004089ADD000008C2752200900002E0FFC3
:1006E200B4FF02D210900003E0FFB4FF02D21190D7
:1006F2000004E0FFB4FF02D212900005E0FFB4FF55
:1007020002D213120444752A0175510CAF517E00B6
:100712007B007A00792DC003C002C0010B7A0079F8
:100722001DA801AC027D01D001D002D003120D6FD1
:10073200753902855128759923752E01752F01751A
:100742002D01753100753200753000753400753534
:10075200007533007537007538007536002275C88C
:1007620004753D00753E00752E00752F00752D0035
:1007720075310075320075300075340075350075BD
:100782003300753700753800753600900002E0FFBF
:10079200F55AA3E0FFF55BA3E0FFF55CA3E0FFF5EC
:1007A2005DD2281215F722900002E0FFB4FF1C75FB
:1007B2005EFF755A00D200302216E550B40111C214
:1007C20004C2227596007597008005755E00C2000E
:1007D200900003E0FFB4FF1C755FFF755B00D20160
:1007E200302216E550B40211C205C2227596007578
:1007F20097008005755F00C201900004E0FFB4FF1E
:100802001C7560FF755C00D208302216E550B403F7
:1008120011C20CC2227596007597008005756000A2
:10082200C208900005E0FFB4FF1C7561FF755D0012
:10083200D209302216E550B40411C20DC2227596B7
:10084200007597008005756100C209752A0375510C
:100852000490001DE55EF0A3E55FF0A3E560F0A360
:10086200E561F075390285512875992375EC0012FE
:100872000FBA12107D22752A0475510490001DE5ED
:100882005EF0A3E55FF0A3E560F0A3E561F07539E2
:100892000285512875992322755104752ADDE53D9B
:1008A200FF3395E0FE90001DEFF0AF3EEFA3F0A303
:1008B2007401F0A37405F0753902855128759923E6
:0108C2002213
:10155400302849E55A7045E55B7041E55C703DE52E
:101564005D600122C228752A0275510C7B007A0045
:10157400792DC003C002C0010B7A00791DA801AC0B
:10158400027D01D001D002D0037E007F0C120D6FCA
:0D15940075390285512875992375C800220C
:0A12F4008B088A09890A8C0B8D0C07
:1012FE00750D00750E00750D00750E01C3E50E958A
:10130E000CE50B6480F8E50D648098502CAB08AAB0
:10131E0009A90AAE0DAF0E8F828E83120DAEFFACF1
:10132E000DAD0E741C2DF58274003CF583EFF005A7
:10133E000EE50E7002050D80C3AF0CEF14F5287587
:0E134E00391DAB08AA09A90A120D95FFF599E1
:01135C00226E
:03002B000215A11A
:1015A100C0E0C0D0C2CF053EE53E7002053DE52B4F
:1015B1007013752B63E553C3944F40057553008039
:0C15C1000605538002152BD0D0D0E0327C
:030073000216432F
:10164300C0E0C0D053917F0552E552D394034005C7
:0A165300755200D224D0D0D0E0324E
:03168B0001150046
:1015010030870E90001CE004F0700690001BE00490
:10151100F030860E900050E004F0700690004FE02D
:1015210004F030830E900052E004F07006900051F8
:10153100E004F030820E900054E004F07006900058
:1015410053E004F0900001E004F07006900000E028
:0315510004F02281
:10135D00E55AB40107753A01C2028016E55AB40286
:10136D0007753A02D202800A752E00752F00752D71
:10137D000022755001D204C205C20CC20D753B008E
:10138D00753C00759600759700120FBA12107DD23C
:10139D0022C220D229C22575410075420090001B42
:1013AD00E4F0A3F0900000F0A3F0C223F554F5553E
:0913BD00F53FC224D22AC2272206
:1013C600E55BB40107753A01C2038016E55BB4021A
:1013D60007753A02D203800A7531007532007530FE
:1013E6000022755002C204D205C20CC20D753B0024
:1013F600753C00759600759700120FBA12107DD2D3
:1014060022C220D229C22575410075420090004FA4
:10141600E4F0A3F0900000F0A3F0C223F554F555D4
:09142600F53FC224D22AC227229C
:10142F00E55CB40107753A01C20A8016E55CB402A7
:10143F0007753A02D20A800A753400753500753384
:10144F000022755003C204C205D20CC20D753B00B9
:10145F00753C00759600759700120FBA12107DD269
:10146F0022C220D229C22575410075420090005139
:10147F00E4F0A3F0900000F0A3F0C223F554F5556B
:09148F00F53FC224D22AC2272233
:10149800E55DB40107753A01C20B8016E55DB4023B
:1014A80007753A02D20B800A753700753800753611
:1014B8000022755004C204C205C20CD20D753B004F
:1014C800753C00759600759700120FBA12107DD200
:1014D80022C220D229C225754100754200900053CE
:1014E800E4F0A3F0900000F0A3F0C223F554F55502
:0914F800F53FC224D22AC22722CA
:10007600302A22C22A900000E4F0A3F090001BF080
:10008600A3F090004FF0A3F0900051F0A3F0900081
:1000960053F0A3F022E55064017069900000E0FE81
:1000A600A3E0FF7802CEC313CE13D8F9F5128E1152
:1000B600D39400E5119400403A900000E0FEA3E0DE
:1000C600FF9512FFEE9511FE90001BE0FCA3E0FDEC
:1000D600D39FEC9E4005D22702027590001BE0FEDE
:1000E600A3E0FFC39512EE95114003020275C227E5
:1000F600020275900000E4F0A3F090001BF0A3F05C
:1001060022020275E55064027069900000E0FEA3C9
:10011600E0FF7802CEC313CE13D8F9F5128E11D3B1
:100126009400E5119400403A900000E0FEA3E0FF41
:100136009512FFEE9511FE90004FE0FCA3E0FDD373
:100146009FEC9E4005D22702027590004FE0FEA369
:10015600E0FFC39512EE95114003020275C2270215
:100166000275900000E4F0A3F090004FF0A3F02297
:10017600020275E55064037069900000E0FEA3E09A
:10018600FF7802CEC313CE13D8F9F5128E11D3948D
:1001960000E5119400403A900000E0FEA3E0FF95D0
:1001A60012FFEE9511FE900051E0FCA3E0FDD39FF7
:1001B600EC9E4005D227020275900051E0FEA3E0B6
:1001C600FFC39512EE95114003020275C227020283
:1001D60075900000E4F0A3F0900051F0A3F0220225
:1001E6000275E55064047063900000E0FEA3E0FF32
:1001F6007802CEC313CE13D8F9F5128E11D394001C
:10020600E51194004035900000E0FEA3E0FF951252
:10021600FFEE9511FE900053E0FCA3E0FDD39FECAA
:100226009E4004D2278048900053E0FEA3E0FFC31F
:100236009512EE95115038C2278034900000E4F0F4
:10024600A3F0900053F0A3F0228024900000E4F085
:10025600A3F090001BF0A3F090004FF0A3F09000E5
:1002660051F0A3F0900053F0A3F0C222D2202290C6
:100276000000E4F0A3F090001BF0A3F090004FF014
:10028600A3F0900051F0A3F0900053F0A3F03023B8
:100296000302034720290302031D30274AC3E53C16
:1002A6009480E53B9400500D754100754200D225BF
:1002B600C222D22022AE3BE53C7806CEC313CE1333
:1002C600D8F9F5558E54753F01D223C22974C0253D
:1002D6003CF53C74FF353BF53BF54D754C00AF3CAA
:1002E600EFF596854D9722C3E53C94C0E53B94FF18
:1002F600501A7440253CF53CE4353BF53B754C0003
:10030600754DFFAF3CEFF596854D97227541037508
:1003160042FFD225C22922D3E53C943FE53B940017
:10032600401A74C0253CF53C74FF353BF53BF54D52
:10033600754C00AF3CEFF596854D9722C222D22030
:10034600223029030203DB202759AE3BE53C780621
:10035600CEC313CE13D8F9FF24FFFFEE34FFFEEF12
:100366002555F555EE3554F554053FE53FC3942024
:100376004016AE54E5557805CEC313CE13D8F9F51D
:10038600428E41D225C22322D2297440253CF53C17
:10039600E4353BF53BF54D754C00AF3CEFF59685E6
:1003A6004D9722C3E53C9480E53B9400500D754182
:1003B60000754200D225C222D2202274C0253CF507
:1003C6003C74FF353BF53BF54D754C00AF3CEFF506
:1003D60096854D9722302735AE3BE53C7806CEC351
:1003E60013CE13D8F9FF2555F555EE3554F55405BA
:1003F6003FC22974C0253CF53C74FF353BF53BF5FF
:100406004D754C00AF3CEFF596854D9722C3E53C04
:1004160094C0E53B94FF50197440253CF53CE43507
:100426003BF53BF54D754C00AF3CEFF596854D978A
:0D043600227541037542FFD225C229C22361
:010443002296
:10044400752E00752F00752D0075310075320075FD
:100454003000753400753500753300753700753814
:100464000075360075EC002010030204F4755A017F
:1004740012135D121501302408C22412007675ECA3
:10048400003020EF800280EB30256585416B85428A
:100494006C755A0212135D121501302408C224121D
:1004A400007675EC003020EF800280EB302541852A
:1004B40041268542277F011211408F40E540B40157
:1004C40016752D01AF6CEFF52EE56BF56C756B00B1
:1004D400AF6CEFF52F8019E540B40214752D02AF0F
:1004E40027EFF52EE526F527752600AF27EFF52F24
:1004F40075EC00201103020580755B011213C6120E
:100504001501302408C22412007675EC003020EF67
:10051400800280EB30256585416B85426C755B02FA
:100524001213C6121501302408C22412007675EC89
:10053400003020EF800280EB302541854126854242
:10054400277F021211408F40E540B4011675300137
:10055400AF6CEFF531E56BF56C756B00AF6CEFF5D7
:10056400328019E540B40214753002AF27EFF5313B
:10057400E526F527752600AF27EFF53275EC002048
:10058400120302060C755C0112142F12150130249B
:1005940008C22412007675EC003020EF800280EB54
:1005A40030256585416B85426C755C0212142F12EF
:1005B4001501302408C22412007675EC003020EFB7
:1005C400800280EB3025418541268542277F031236
:1005D40011408F40E540B40116753301AF6CEFF55F
:1005E40034E56BF56C756B00AF6CEFF5358019E590
:1005F40040B40214753302AF27EFF534E526F5272E
:10060400752600AF27EFF53575EC002013030206BD
:1006140098755D01121498121501302408C2241231
:10062400007675EC003020EF800280EB3025658584
:10063400416B85426C755D021214981215013024C9
:1006440008C22412007675EC003020EF800280EBA3
:100654003025418541268542277F041211408F4071
:10066400E540B40116753601AF6CEFF537E56BF56F
:100674006C756B00AF6CEFF5388019E540B402146B
:10068400753602AF27EFF537E526F527752600AF57
:1006940027EFF538C204C205C20CC20D120FBA12FC
:1006A400107D755D00755C00755B00755A007553AF
:0E06B40000C225C220C21BC21AC219C21822DF
:101140008F14D3E56C9400E56B9402400EE56C249B
:1011500000F557E56B34FEF556800CC3E4956CF54D
:10116000577402956BF556D3E5279400E526940253
:10117000400EE5272400F559E52634FEF558800C8D
:10118000C3E49527F55974029526F558D3E557958C
:1011900059E55695584025E52724ECFFE52634FF10
:1011A000FE7B007A007941AD1475F002EDA4F58262
:1011B00085F083EE8FF0120DDB7F0222E56C24ECCC
:1011C000FFE56B34FFFE7B007A007941AD1475F0CA
:1011D00002EDA4F58285F083EE8FF0120DDB7F0126
:0111E00022EC
:1015F700751500E515C39404501EAF15745A2FF8DE
:10160700E6FF6010AF15A8077401088002C333D83E
:09161700FCF52322051580DB22FD
:011DFF00FFE4
:1011ED00020E2EE493A3F8E493A34003F68001F2DC
:1011FD0008DFF48029E493A3F85407240CC8C33303
:10120D00C4540F4420C8834004F456800146F6DFD1
:10121D00E4800B010204081020408090168BE47EC0
:10122D00019360BCA3FF543F30E509541FFEE493C6
:10123D00A360010ECF54C025E060A840B8E493A38D
:10124D00FAE493A3F8E493A3C8C582C8CAC583CAB8
:10125D00F0A3C8C582C8CAC583CADFE9DEE780BE70
:01168E00005B
:100C9F00E709F608DFFA8046E709F208DFFA803E37
:100CAF0088828C83E709F0A3DFFA8032E309F60824
:100CBF00DFFA8078E309F208DFFA807088828C838C
:100CCF00E309F0A3DFFA806489828A83E0A3F60840
:100CDF00DFFA805889828A83E0A3F208DFFA804C1A
:100CEF0080D280FA80C680D4806980F280338010F1
:100CFF0080A680EA809A80A880DA80E280CA80335A
:100D0F0089828A83ECFAE493A3C8C582C8CCC583D1
:100D1F00CCF0A3C8C582C8CCC583CCDFE9DEE780A1
:100D2F000D89828A83E493A3F608DFF9ECFAA9F020
:100D3F00EDFB2289828A83ECFAE0A3C8C582C8CC76
:100D4F00C583CCF0A3C8C582C8CCC583CCDFEADE8F
:100D5F00E880DB89828A83E493A3F208DFF980CCF1
:100D6F0088F0EF60010E4E60C388F0ED2402B404EA
:100D7F000050B9F582EB2402B4040050AF23234591
:060D8F008223900CEF73BB
:100D9500BB010689828A83E0225002E722BBFE025C
:090DA500E32289828A83E493228F
:100DAE00BB010CE58229F582E5833AF583E02250FA
:100DBE0006E92582F8E622BBFE06E92582F8E22244
:0D0DCE00E58229F582E5833AF583E493225E
:100DDB00F8BB0111E58229F582E5833AF583E8F04A
:100DEB00E5F0A3F0225009E92582C8F608A6F02207
:0D0DFB00BBFE09E92582C8F2E5F008F222EE
:100E0800D083D082F8E4937012740193700DA3A379
:100E180093F8740193F5828883E47374029368608D
:060E2800EFA3A3A380DF8D
:00000001FF
